:020000040800F2
:10000000801100202D0B0008CB2F0008190B0008D1
:10001000190B0008190B0008190B0008000000005C
:10002000000000000000000000000000ED0B0008D0
:10003000190B0008000000008D0B0008651B00086C
:10004000750D0008750D0008750D0008750D000888
:10005000750D0008750D0008750D0008750D000878
:10006000750D0008750D0008750D0008750D000868
:10007000750D0008750D0008750D0008750D000858
:10008000750D0008750D0008750D0008750D000848
:10009000750D0008750D0008750D0008750D000838
:1000A000750D0008750D0008750D0008750D000828
:1000B000750D0008750D0008750D0008750D000818
:1000C000750D0008750D0008750D0008750D000808
:1000D000750D0008750D0008750D0008750D0008F8
:1000E000750D0008750D0008750D0008750D0008E8
:1000F000750D0008750D0008750D0008750D0008D8
:10010000750D0008750D0008750D0008750D0008C7
:10011000750D0008750D0008750D0008750D0008B7
:10012000750D0008750D0008750D0008750D0008A7
:10013000750D0008750D0008750D0008750D000897
:10014000750D0008750D0008750D0008750D000887
:10015000750D0008750D0008750D0008750D000877
:10016000750D0008750D0008750D0008750D000867
:10017000750D0008750D0008750D0008750D000857
:10018000750D0008750D0008750D0008750D000847
:10019000750D0008750D0008750D0008750D000837
:1001A000750D0008750D0008750D0008750D000827
:1001B000750D0008750D0008750D0008750D000817
:0401C000750D0008B1
:1001C40053B94AB9002908BF00281CBF4FF0FF31BA
:1001D4004FF0FF3000F00CB8ADF1080C6DE904CE1F
:1001E40000F008F8DDF804E0DDE9022304B070470C
:1001F400704700BF2DE9F04786468C460846089EA6
:10020400154674461946002B40F0C2808542B2FA66
:1002140082F245D94AB1C2F1200300FA02FC2EFA57
:1002240003F3954043EA0C0C94404FEA154EA8B2F0
:10023400BCFBFEF8230C0EFB18CC08FB00F943EAC8
:100244000C43994528D9EB1808F1FF3704D2994596
:1002540002D9A8F102072B44A3EB0903A4B2B3FB10
:10026400FEFC0EFB1C330CFB00F044EA0344A042EA
:1002740014D92C190CF1FF3304D2A04202D9ACF1E9
:1002840002032C44241A43EA07401EB1D44000233D
:1002940034607360BDE8F0874746DDE76346F1E705
:1002A40092BB431B01214FEA154EAFB2B3FBFEFCD8
:1002B400200C0EFB1C330CFB07F840EA0343984563
:1002C40062D9EB180CF1FF3004D2984502D9ACF195
:1002D40002002B44A3EB0803A4B2B3FBFEFC0EFB09
:1002E4001C330CFB07F744EA0344A7424ED92C19EC
:1002F4000CF1FF3304D2A74202D9ACF102032C441F
:10030400E41B43EA0040C0E7C2F1200320FA03F1F2
:10031400954090402EFA03F303434FEA154EAFB2D3
:10032400B1FBFEFC0EFB1C10190C0CFB07F841EA98
:100334000041884504FA02F422D969180CF1FF300F
:1003440004D2884502D9ACF102002944A1EB08018A
:100354009BB2B1FBFEFC0EFB1C110CFB07F743EA3E
:1003640001439F420ED9EB180CF1FF3104D29F4296
:1003740002D9ACF102012B44DB1B41EA004192E7B4
:100384006046E3E76146F7E76046A3E76346B7E7FD
:10039400834206D916B9002108467BE7C6E900E086
:1003A400F9E7B3FA83F78FB9834201D3724508D8CA
:1003B400BEEB020460EB030301209C461EB900213E
:1003C40068E73846FAE7C6E9004CF8E7C7F1200CBD
:1003D400BB4022FA0CF41C432EFA0CF120FA0CF365
:1003E400B84001434FEA14490EFA07F5B3FBF9F894
:1003F4001FFA84FE09FB18300B0C08FB0EFA43EAC3
:1004040000439A4502FA07F240D9E31808F1FF3095
:1004140004D29A4502D9A8F102002344A3EB0A03AB
:1004240089B2B3FBF9F809FB183308FB0EFE41EA65
:1004340003418E452CD9611808F1FF3304D28E454F
:1004440002D9A8F10203214443EA0040A0FB029828
:10045400A1EB0E014145CE46434602D306D14D459C
:1004640004D2B9EB020E68EB04030138002EA6D0C7
:10047400B5EB0E0261EB030101FA0CFC22FA07F35F
:100484004CEA0303F940C6E9003198E74046C5E762
:100494004346D9E7F7B5204803F098F920B91F4837
:1004A40002F07BFD002005E01D4C236823B91D48A4
:1004B40002F073FD03B0F0BD1B48174D1B4F02F053
:1004C4006CFD002142F2107003F0E3F9AE681248AB
:1004D400F36842219847014618B1154802F05DFDC2
:1004E400E0E7262133696A4628469847014608B161
:1004F4001048F3E70099384602F04FFD2068482180
:1005040002F0DDFC2068692102F0D9FC20680A2190
:1005140002F0D5FCD5E700BF983C00086A42000809
:1005240000000020844200089B420008F1420008B9
:10053400BB420008D8420008014B1B68184700BFA3
:1005440004000020014B1860704700BF0400002025
:1005540030B585B004460D4610220021684603F0EC
:1005640008FA02238DF802302A46044B01932146EF
:10057400684602F047FA05B030BD00BF3D050008EB
:1005840080B505460E461746984601F0D3FF03464C
:1005940003F05AFADFF81890044649F8003042464E
:1005A40030463946A84754F8090000F0D7FA00BF8E
:1005B40008000000034A536823F00203536000203C
:1005C400704700BF002004E0084B1A6842F48072B0
:1005D4001A601A6842F400721A601A6842F480625F
:1005E4001A60034B034A1A60704700BF003C024084
:1005F400380000200024F400014B03600020704701
:100604004040000808B50348034A0021121A02F0CA
:10061400D2FC08BD78000020A40300200748084A43
:10062400084908B5121A02F0C8FC0748074A0849E5
:10063400BDE80840121A02F0C0BC00BF0000002050
:100644007400002050480008000000200000002032
:100654005048000838B505460C4699B1D1E9012344
:100664000F48096802F099FCD4E90423E1680D48B5
:1006740002F093FCE1690C4802F08FFCA1690B487D
:1006840002F08BFC012D05D1EFF3058108481039E8
:1006940002F083FC21462846BDE8384001F0DEBB69
:1006A40008430008384300086843000878430008FA
:1006B400A743000830BFFFF7FDBF00BF2DE9F0419D
:1006C4000B4EDFF8308006EB0807CC1B054632469C
:1006D4000949204603F03FF9A01942460021083C8D
:1006E40003F047F92C6707F10800BDE8F08100BF6B
:1006F400000000000400000040400008054B5A6957
:100704009B689A421FBF044A536843F08053536066
:10071400704700BF7403002000ED00E02DE9F843AA
:10072400324D804632488946174602F036FCAB6AA1
:10073400DE0622D52F4802F030FC1124AB6A1D07D7
:1007440003D52D4802F029FC1224284DAB6A9807E2
:1007540015D52A4802F021FC6E6BAB6A190642D506
:100764002748314602F019FCB9F1000F03D0AB6AF7
:1007740023F08003AB62132403E01024DEE76FF060
:1007840015061A4DAB6ADA0703D51E4802F005FCBC
:100794001424AB6A9B0603D51B4802F0FEFB152408
:1007A400124B9A6AD50602D49A6A90070AD55B68F6
:1007B400190507D54146304600F094FA10B180F38C
:1007C40009880224094B9A6A920642BF5A6A22F4A3
:1007D40000525A629A6A42F0FF029A6200233B7006
:1007E4002046BDE8F8836FF01506C4E700ED00E08D
:1007F400BB430008D2430008064400081A4400081A
:10080400334400084A4400086A44000810B51D4CEB
:100814001D4802F0C2FBA36A990130D51B4802F0BF
:10082400BCFB1E20A36ADA0103D5194802F0B5FB0C
:100834001F20144CA36A1B0303D5164802F0ADFB1A
:100844002120A36A590303D5134802F0A6FB2220F2
:100854000C4CA36A9A0303D5104802F09EFB232094
:10086400A36ADB0303D50E4802F097FB2420054A54
:10087400936A6FEA03436FEA1343936210BD1D202A
:10088400D0E700BF00ED00E09A440008B34400083C
:10089400C7440008E2440008014500082745000851
:1008A4004245000870B5244C064624480D4602F023
:1008B40074FBA36AD90435D5214802F06EFB1720D6
:1008C400A36A1A0503D51F4802F067FB18201A4CC7
:1008D400A36A9B050FD51C4802F05FFBA16BA36ABA
:1008E400180407D5194802F058FB1EB1A36A23F473
:1008F4000043A3621920104CA36A590503D5144878
:1009040002F04BFB1A20A36ADA050DD5114802F058
:1009140044FB1B20084A936A43F47F4393620023F9
:100924002B7070BD1620CBE7A36A9B04F2D50A484E
:1009340002F033FB1C20EDE700ED00E06E450008FB
:10094400854500080644000897450008B14500089D
:10095400C7450008E34500086A4400082DE9F04152
:100964005B4B5F688AB00446C7F30806002585F32D
:100974001188BFF36F8F02F07F43B3F17F4F06D12D
:1009840002F00C03082B13D1524802F006FB002599
:100994002C464FF00008F31E8DF80780092B00F257
:1009A4008680DFE803F00A7A7E76848484848482F5
:1009B40010074CBF0C460125EBE74748444E02F0B4
:1009C400ECFA8DF80780F36A9A0704D5434802F0DD
:1009D400E4FA002330E0F36A002B01DA4048F6E73A
:1009E400F36A5B00F5D53F4802F0D7FA7369A26950
:1009F40043F480737361BFF34F8FBFF36F8F7369D9
:100A040032F8022C23F480737361BFF34F8FBFF36A
:100A14006F8F4DF602739A4209D0B36ADBB253B3B7
:100A24000DF1070201212046FFF778FE33E021682B
:100A34002D4802F0B2FA23689DF80720C2B902AE2D
:100A440004F1200720686168324603C20834BC42BE
:100A54001646F7D1099AB5B3C2F3080121B96FEA72
:100A640052226FEA4222099202A91846FFF7F2FDC8
:100A74000AB0BDE8F081B36A13F47F4F05D00DF1DD
:100A840007010120FFF70EFF05E0B36AB3F5803FCD
:100A94009FD3FFF7BBFE0346CEE70DF1070200210B
:100AA400C1E70DF107010020ECE710488FE7104B78
:100AB4001049114817F4F87FA6F1100218BF19461F
:100AC40002F06BFA85E722F4FF7222F00102CAE712
:100AD40000ED00E02A460008564600086E4600086D
:100AE400904600089F460008BF460008DC46000800
:100AF40011460008FC45000801470008044B5A69E8
:100B040042F010025A615A6922F008025A61704791
:100B140000ED00E0EFF30880EFF3098101B57246C0
:100B2400FFF71CFF01BD00BF0A4880F308881020AE
:100B340080F3118808484FF40461401880F3098851
:100B4400EFF314800221084380F31488BFF36F8FFE
:100B540000F090F880110020C0030020084B9B682F
:100B640083420BD1EFF3058343B1064B5A6842F03D
:100B740080525A605A6A22F400425A6201F0E0BC80
:100B84007403002000ED00E014498A684FF030003F
:100B94001044EFF3098C80E8F01F102080F31288D2
:100BA400BFF36F8F0E4F4FF000664A698A603E6054
:100BB400106F0C4C2060506F0023536780F3118832
:100BC40004B5104600F0F2F8BDE8044002F130002C
:100BD40090E8F01F8CF3098870470000740300202C
:100BE40004ED00E0280200201EF0040F0CBFEFF318
:100BF4000880EFF30980816911F8021C0229FFD0F3
:100C040001B5724602F0DBF901BD00BF40B2002815
:100C140007DB044A4109012300F01F00834042F826
:100C24002130704700E100E040B20028A8BF00F185
:100C3400604001F10101B8BF064B4FEA0111ACBF9E
:100C440000F5614000F00F00C9B2B4BF195480F838
:100C54000013704714ED00E0044B054A23F07F03B2
:100C64009360BFF34F8FBFF36F8F7047000000088E
:100C740000ED00E008B5FFF7EFFF0B4AD2F888302B
:100C840023F47003C2F88830EFF3148323F00403D1
:100C940083F31488BFF36F8FFFF7B4FCFFF7BEFC38
:100CA40000F05AF801F0A2F900ED00E042F8203C0F
:100CB400009B42F81C3C0A49019B42F8183C029BE9
:100CC40042F8143C21F001014FF0807342F8043CD7
:100CD40042F8081C0023203A02654367704700BFAE
:100CE40085050008094A0346906870B113F1160F90
:100CF400006E05D0A0F140029A4205D8834203D287
:100D0400814228BF002070470020704774030020F0
:100D140008B515460B4A0C4B9060026F1A600E46DC
:100D240000F044F82C4686F309880020034B9847CA
:100D34002046002100220023014C2047E72F000811
:100D4400850500087403002028020020014B1022AE
:100D54001A61704700ED00E0044800231021C21816
:100D64000133612B82F80013F9D1704700E100E0F0
:100D740008B5EFF30583064A103B02EBC30152F8B2
:100D8400330049688847BDE80840FFF7B7BC00BF97
:100D9400B83C0008024B034A0348012100F076B82E
:100DA400008000200000002040400008026E054B37
:100DB400403A1A60044A4021C3E90112184601214D
:100DC40000F06EB82C02002000000B15084AC2F88F
:100DD40098000B6823F01F03034343F01003C2F889
:100DE4009C308B6843F00103C2F8A030704700BF09
:100DF40000ED00E02DE9F043DFF8608085B00E4699
:100E04001F4604464FF00009B14523DA6068D8B1A3
:100E14003FB1411E08421BD11F2819D9236819422A
:100E240016D12368019302F0F0F8A36803430393F7
:100E3400D8F89050C5F30725D0B2013DA84207D891
:100E440001A9FFF7C3FF421C09F101090C34DBE7D8
:100E54006FF01502104605B0BDE8F08300ED00E028
:100E6400044B0522C3F89420BFF34F8FBFF36F8F59
:100E7400704700BF00ED00E0BFF35F8F024B00221C
:100E8400C3F89420704700BF00ED00E010B5034C98
:100E940001232278FFF7AEFF207010BDA0030020CD
:100EA40008B50B4A00231278FFF7A4FF10F1160FC0
:100EB40007D0084A0021D2F89030C3F307239842A0
:100EC40000DB08BDC2F89800C2F8A0100130F2E7B8
:100ED400A003002000ED00E02DE9F043534B544CF7
:100EE400D3F890302568C3F307239D4285B000F200
:100EF4009A80FFF7C1FF00200C2685421AD14D4C81
:100F04004D4F25706846FFF777FBDFF82081DFF847
:100F14002C9106460025AE4213D123784349002084
:100F2400D1F89020C2F30722934276DBFFF798FFB3
:100F3400002042E0616806FB0011FFF747FF013023
:100F4400DBE7009800EB05114FEA051CCB683B403A
:100F5400B3F5000F48D00AD8B3F5001F30D0B3F56D
:100F6400800F36D0B3F5801F10D00135D3E7B3F12D
:100F7400807F42D0B3F1007FF7D150F80C308868FD
:100F84004A6802F042F840F4802009E050F80C303E
:100F940088684A6802F039F840F0885040F43020FC
:100FA400CDE901230390D8F890302078C3F30723C8
:100FB400013B98422AD96FF0150005B0BDE8F083D3
:100FC40050F80C3088684A6802F01FF840EA0900BB
:100FD400E6E750F80C3088684A6802F016F840F0EA
:100FE400C06040F40030DBE750F80C3088684A6891
:100FF40002F00BF840F08270D2E750F80C308868A9
:101004004A6802F002F840F08870C9E701A9FFF7C6
:10101400DDFE237801332370A7E7C1F89830C1F8C7
:10102400A00001337CE74FF0FF30C6E700ED00E09D
:101034004C400008A00300200000F0FF000008114D
:1010440008B5024B1B689847002008BD38020020F1
:10105400034B044A1860937843F00203937070477B
:10106400380200200800002008B50649064821F08F
:101074000701C1F1005202F5004201F04FFF0020C8
:1010840008BD00BFC71100203C020020044B1844D7
:1010940000230133994200F8012BFADC704700BFAA
:1010A400480000202DE9F041104F054600264FF07E
:1010B40001086B78F4B2A34201D8BDE8F0812B7823
:1010C4001C44204600F0C0F868B1204600F0CCF87B
:1010D40057F834303BB107EBC40204F01F045168E5
:1010E40008FA04F098470136E3E700BF48020020FD
:1010F400034660B1B0FA80F2C2F11F02D2B20549D0
:101104008856054A11680B431360FFF77FBDFF2221
:10111400F5E700BF48000020003C0140024A136884
:1011240023EA000313607047003C0140032921D8DF
:10113400DFE801F0020C10190F4B9A6822EA000252
:101144009A60DA6822EA0002DA6070470A4B9A6809
:101154000243F5E7084BDA680243DA609A6822EA48
:1011640000029A607047044B9A6802439A60DA68F6
:101174001043D860704700BF003C014030B5B0B1A7
:10118400B0FA80F3C3F11F03DBB20B4850F83340CD
:101194008C4204D100EBC3056D68954205D044B977
:1011A40040F8331000EBC3004260002030BDFF2341
:1011B400EBE76FF00F00F9E74802002060B1B0FAE6
:1011C40080F3C3F11F03DBB2044A002142F8331059
:1011D40002EBC30251607047FF23F5E74802002089
:1011E40000F00302043292000F23934043EA90007C
:1011F400C3B20233054A52F82320030C02EA10401A
:1012040093FAA3F3B3FA83F3D8407047003801404C
:1012140013B50C4C204602F0D9FA60B14FF4804368
:101224004422CDE90023A3681B683BB169462046EC
:10123400984702B010BD6FF01200FAE76FF0570044
:10124400F7E700BFF83A00081F2809D8012303FA7A
:1012540000F0044B5B6998430CBF012000207047E9
:1012640000207047003C014000F01F021F284FF08F
:10127400010303FA02F39DBF024A002053616FF099
:1012840015007047003C014038B50888314BC0F365
:101294000B000D281B680D4614462CD810B96FF0AE
:1012A400850027E001380C28F9D801A252F820F073
:1012B400ED12000847130008E9120008471300085C
:1012C400431300082313000833130008A312000873
:1012D400A3120008A3120008A3120008ED120008CC
:1012E400ED1200084FF4FA4323602968B1F5805FDA
:1012F40029D2002038BD44280ED82F28CFD900F594
:101304007D61C1F30B0101228A4013490A42EBD1EA
:101314004028C4D15B08E7E7A828E5D0BFE700F080
:10132400BFF84FF4C072C30853439B08DCE700F0D6
:10133400B7F84FF4C072C3085343DB08D4E7074B34
:10134400D2E70023D0E7C1F313310131B3FBF1F34A
:101354002360CEE7380000201101100000127A004B
:1013640070B54A4C4A4D00F0BDF8204601F05AFFD2
:1013740000F0C0FCAB68474AC3F30313D35C20FA04
:1013840003F613781C41A64202D2204600F0E0FC8A
:101394002B6843F480232B602B6843F480332B6049
:1013A4003B4B1A689103FCD55A6F42F001025A670D
:1013B4005A6F9207FCD59A6802F00C02082A17D1DA
:1013C4001A68950707D41A6842F001021A60304A75
:1013D40013689807FCD52E4B9A6822F003029A6092
:1013E4009A6812F00C0FFBD19A6822F0F0029A600E
:1013F400274D2B6823F080732B602B689901FCD454
:10140400254AD2F8043823F4403343F48033C2F835
:101414000438D2F8043823F0706343F00063C2F850
:10142400043800F041F82B6843F080732B60184BAC
:101434001A689201FCD59A6822F0F0029A609A68C0
:1014440022F0030242F002029A609A6802F00C024F
:10145400082AFAD1A64202D3204600F079FC0F4BA9
:101464000A4A1A600A4B9A6822F4E05242F4805203
:101474009A609A6822F460429A60D3F88C2022F031
:101484008072C3F88C20002070BD00BF00D8B8055E
:1014940000380240034800080030024038000020B1
:1014A4000048704700127A00094B0A495A681140F3
:1014B400094A0A435A605A68084922F4403242F4FD
:1014C40080325A605A681140054A0A435A6070478C
:1014D400003802400080BFFF086040000080BFF079
:1014E40008604008064B1A6C42F080521A641B6C68
:1014F40082B003F080530193019B02B0704700BF98
:101504000038024008B5074802F060F938B10648CF
:10151400FFF79EFD0448FFF715F8002008BD6FF0A3
:101524001200FBE7583C0008311500080A2838B5BA
:10153400074D044604D1AB680D215B6828469847E3
:10154400AB6803485B68E1B29847204638BD00BFEA
:10155400583C00082DE9F843D0F80480D0F81090E6
:10156400D8F8080017460D461E4601F0ACFDB7F545
:10157400001F044616D12846D8F80840FFF730FE6D
:1015840084420CD1294601F09EFD0446FFF7C6FDB6
:101594002046FFF713FE00212046FFF7C7FD002079
:1015A400BDE8F883B7F5800F20D0B6F1806F19D06D
:1015B400B6F1C06F18D0B6F1007F1AD102261049D7
:1015C4004A462046FFF7DAFDB0B9D8F80810284695
:1015D40001F07EFD20463146FFF7A8FD2046FFF7C7
:1015E40087FDDCE70126EAE70326E8E76FF08500DC
:1015F400D6E76FF01500D3E76FF00F00D0E700BF18
:101604009D34000838B50369044658600A4D2846DD
:1016140002F0DCF860B1AB6861681B680C3123B17F
:101624002846984700EAE07038BD6FF05700F9E7A4
:101634006FF01200F8E700BFF83A00082DE9F04710
:101644001E4F044600EBC1060025B44201D1002020
:1016540014E02068C30600F01F0911D4656845F042
:101664002005C0F3481AC0F34420192823D857F89A
:101674002080B8F1000F0DD16FF01200BDE8F087A3
:10168400B9F1100F04D0B9F1110FEAD16568E8E798
:101694003025E6E7404602F099F80028ECD04B46A6
:1016A4002A460AF00F01404601F00CFF002804F11D
:1016B4000804CADAE2E76FF01500DFE70C4100081E
:1016C40073B54568044601AA2868002101F012FF99
:1016D400002875DB019B002219791868FFF7AEFF1B
:1016E40000286DDB3F4E304602F070F8002872D0BF
:1016F400B3681B68291D002B70D03046984700281A
:101704005EDBE968384BAA6999425BD14FF0FF333D
:10171400B3FBF2F35343DB43C3F1FF2303F57F032E
:10172400FE33CB62EA682969936823F4804323F08B
:1017340007030B4393606368D9688A6922F0030244
:1017440042F001028A61D968587D8A6922F0F00268
:1017540042EA00128A61D9688A6922F00C028A611D
:10176400D968187D0A6A22F00A0343EA40030B622F
:101774006368D9688A6922F4407242F480728A618B
:10178400D968587D8A6922F4704242EA00328A613B
:10179400D9688A6922F440628A61D9680A6A187D24
:1017A40022F0A00343EA40130B62EA68136A43F091
:1017B40011031362EA68136843F001031360002005
:1017C40002B070BD4FF6FF73B3FBF2F002FB1033AF
:1017D400C3F57F43A4E76FF01200F1E76FF0570001
:1017E400EEE700BFF83A0008000C0040F8B50C46DC
:1017F400036941685D682379012B35D09A1E5642EE
:101804005641B6026279022A9CBF374F37F812C09C
:10181400A27988BF4FF4005C042A28D0003B18BF8B
:1018240001231B03E279012A0A680CBF4FF44077B5
:101834000027A542D1681DD121F4B05131430B4397
:10184400D360136923F4405343EA0C0313614368E0
:101854001A68536923F440733B435361296801F0C8
:10186400F7FE00EAE070F8BD4FF4C066CAE74FF433
:101874008053D7E701F4C0618E421FBFD16821F4C1
:10188400C0613143D160426811680A6902F4405270
:1018940094451FBF0A6922F4405242EA0C020A61CD
:1018A40042681168CA6802F4805293421FBFCA6832
:1018B40022F480521343CB6043681A68536903F4DB
:1018C40040739F421FBF536923F440733B435361EA
:1018D40021682B68994205D001F0BAFE0028C2DBCA
:1018E40023682B600020BEE764420008F8B5436813
:1018F4001D6803695F680B790C46012B4979A67949
:1019040035D102294AD9042E45D04FF4C0624FF490
:1019140080534FF0030C8C453DD1002B77D0002A27
:1019240014BF03220422B24235D1E37963B1012BFF
:1019340031D1394B9D4207D0A3F54C439D4203D08E
:1019440003F550439D4226D1EB6823F40053EB602A
:101954002146FFF74BFF00281DDBEB6843F40053DF
:10196400EB6094E8030087E80300002015E0022BF5
:1019740006D102291FD9042E0DD04FF48062C6E788
:1019840002290A461FD9042E02D123B90022BEE738
:1019940013BB0329C7D06FF08500F8BD1F4A042E7E
:1019A40032F811C0F7D04FF4C062033B012BF2D9D7
:1019B4004FF4805319E0194A042E32F811C0EAD0CA
:1019C4004FF48062F1E7154A042E32F811C009D1B0
:1019D400002BE0D11A46EBE7033B012BDBD9D5E71B
:1019E4000022E2E7002BFBD11A46BCF5805F08D049
:1019F400BCF5405F08D0BCF1000F8AD14FF0010C58
:101A040089E74FF0000C86E74FF0020C83E7002AC9
:101A140014BF0222032286E700100140644200083A
:101A2400F7B50669446805462B48306001F0CEFEE0
:101A340018B96FF0120003B0F0BD3068E168836834
:101A44001B68002B42D098470028F4DB206A01AAC7
:101A5400002101F04FFD0028EDDB019B00221979E4
:101A64001868FFF7EBFD0028E5DB6E682B69346826
:101A74005F68E36823F40053E360706801F0A6FE36
:101A84000028D6D0D6E901018368DB6803B1984702
:101A940004F10C0353E8003F43F00C0304F10C0180
:101AA40041E80032002AF3D139462846FFF79EFE6A
:101AB40000280EDB337D1BB1636943F008036361C7
:101AC400E36843F40053E3600020B4E76FF0570089
:101AD400B1E76FF01500AEE7F83A000810B54FF023
:101AE400E0230F499C691A6908689B690D4902F44F
:101AF400803234B993B903464AB90A681044C01A0B
:101B040010BD002B08BF03460AB9A342F5D90A68E1
:101B140002440A604FF0E0221269EEE70446F3E75C
:101B2400700300206C0300200A4B102283F823204A
:101B3400094B4FF416521A60084B002018604FF0FE
:101B4400E02342F27F525A6198611A6942F0070217
:101B54001A61704700ED00E0700300206C03002060
:101B6400684620F007018D4619B5FFF7B7FF114B02
:101B74001149D3E900420868001942F10002C3E99F
:101B840000020E4A00230B60D2E900414FF41653C1
:101B9400001BB0FBF3F043431B1941F10001C2E900
:101BA400003100F0B1FEFEF7A9FDBDE819408546FD
:101BB400704700BF800000206C03002078000020E4
:101BC4002DE9F041DFF8DC8099B1421C0BD14FF0D4
:101BD400E022136923F0010313614FF07F43C8F837
:101BE4000030BDE8F081D8F80060012807DC002748
:101BF4000BE0431CD8F80060F7D140F2D26040F209
:101C0400D3639842A8BF1846471EEFF311851023EB
:101C140083F31288BFF36F8FFFF760FF224C4FF0FE
:101C2400E0239969D4E90023801843F10003C4E94F
:101C340000031E4B00221A601D4B1A68831A2ED40F
:101C44004FF4165C0CFB073303F515533F33B3FB1A
:101C5400FCF7131A0CFB0733B3F5806F154A38BF32
:101C64004FF48063934228BF13464FF0E022C8F834
:101C74000030013B90695361002393618142A1EBE1
:101C84000003D4E9001238BF9B195B1842F100022B
:101C9400C4E9003285F31188BFF36F8FA1E74FF4D5
:101CA4008063E2E770030020800000206C030020C2
:101CB4007800002000C3FF0038B5EFF3118510232E
:101CC40083F31288BFF36F8F084B1C68084B1B68A3
:101CD400E41AFFF703FF85F31188BFF36F8F4FF406
:101CE40016532044B0FBF3F038BD00BF8000002041
:101CF4007800002008B513498B6803F00C03042B0B
:101D04001CD0082B1CD14A684B68496813F4800323
:101D140014BF0D480D48C1F3881118BF002302F009
:101D24003F02A1FB0001FEF74BFA064B5B68C3F3CD
:101D3400014301335B00B0FBF3F008BD0248FCE74C
:101D44000248FAE70038024000127A000024F40046
:101D5400002876D03C4B1A6802F44042B2F5404F5A
:101D640020D13A4A904215D8394A904207D91A6884
:101D740002F44042B2F5004F5CD102201FE0354A24
:101D840090421A6802F4404247D9B2F5004F4CD150
:101D9400012014E01A6802F44042B2F5004F3FD12A
:101DA40003200CE01A6802F44042B2F5004F22D13D
:101DB400274A90423ED8274A90422ED90020224BEF
:101DC4001B68012838BF012003F44043B3F5804F5A
:101DD4001FD0214A136823F00703034313601368D9
:101DE40003F0070398421CBF136803F00703C01AEB
:101DF40018BF012070471B6803F44043B3F5804FBC
:101E04000CD1134B98421AD8124B98424FF0000051
:101E1400DFD9012838BF0120DBE71B680020D8E7A1
:101E24001B68032003F44043D0E71B68012003F43C
:101E34004043CBE71B68022003F44043C6E702207B
:101E4400C7E70120704700BF00700040804A5D056D
:101E54000090D00380C3C901003C024038B5EFF3C1
:101E64001185102383F31288BFF36F8F064B9C6890
:101E740001F0BFFC85F31188BFF36F8F2046BDE8E6
:101E84003840FEF76BBE00BF7403002038B50A4B20
:101E940053F82040013053F82050A54200D838BDF3
:101EA400606830B1037FDB0701D401F077FC0834AC
:101EB400F3E723689847FAE74C42000870B52A4BC9
:101EC4002A4C2B4D012286B003201A70FFF7DEFF47
:101ED40000F092FD0420FFF7D9FF2646AE4204F13C
:101EE400300410D300F032FA204C224EAC4226D3F8
:101EF40000F040FAFEF7CEFA1F4A137B23F00103E9
:101F0400137306B070BD54F80C3C059354F8103CA0
:101F1400049354F8143C039354F8183C029354F873
:101F24001C3C019354F8203C009354E90A2354E9DF
:101F34000C0100F0C1F854F8303C5E65CDE7D4E9FB
:101F44000A23B3F1FF3F08BFB2F1FF3F05D052EAC5
:101F54000301206803D100F0C9FA3034C6E73146E2
:101F6400183000F041FCF8E7A1030020C03F00084E
:101F7400C03F00088F3800080801002070B5002316
:101F840086B00122CDE90423134E144D01930F2290
:101F9400CDE902321249142303FB005506EBC016A7
:101FA40004464FF4C07000FB04110E4B00954FF42F
:101FB400A072304600F080F8737B0B4AEE6023F089
:101FC400040373734FF4046304FB033313442C744A
:101FD4006B6006B070BD00BF880000207403002051
:101FE400000C0020FD370008C0030020BFB500200E
:101FF400FFF74CFF284B83F30888284C284F63696C
:1020040043F4007363610025F02384F82230E577FC
:1020140025766576A57684F82050636A43F4E02338
:102024006362FEF76BFDFEF791FE4FF0FF33A36290
:10203400E362FEF751FFFEF7ADFE1A481A4C00F0BA
:1020440087F8FEF7C1FA0120FFF720FF0220FFF70F
:102054001DFF00F0C3F9154B15495C61154B059341
:102064000123CDE903534FF480623B46CDE901558A
:102074000095204600F020F8627B064622F0040218
:102084002046627301F0D5FB2846FFF777FF3A46F6
:1020940031462046FEF73CFE000C002000ED00E037
:1020A400C11E0008880100200801002074030020DC
:1020B400800D0020134800082DE9F043073285B055
:1020C40022F007020E461F461099017300F15803CF
:1020D4007F32C0E916330446002322F03F02042174
:1020E400836041733F2A0F98A073C4E90633E373F6
:1020F40006F14009A2F1400805D883F31188BFF323
:102104006F8F084602DFB51829462046FEF7D6FA37
:1021140007300E9B20F00700A066C4E918980293CC
:102124000D9B01932D1A0C9B00932A463B46314686
:102134002046FEF7BBFD00236365044B9B6803B197
:10214400DB6EE366284605B0BDE8F0837403002027
:1021540040F2011383810023C0E91833C366014BA5
:102164009860704774030020094A93686FF00A016D
:102174009967084958674B6843F080534B600023C4
:1021840083F31188BFF36F8F9368986F704700BF14
:102194007403002000ED00E070B590F90D20437B3E
:1021A400002A36DBD90634D11B4C63F07F03224668
:1021B400437352F8183FE169934207D1C0E9002103
:1021C4000860E06111E09942F8D01B68002BF5D05B
:1021D40090F90E5093F90E60B542F4D0AE42F2DDA0
:1021E4005968C0E9003108605860A569954200D07B
:1021F40005B9E568A3685A7BD20604D1DA897F2A37
:1022040001D9AA6932B1AB4202D0284600F066FA7D
:10221400656170BD6361FCE77403002038B590F913
:102224000D20437B002A014604DA03F07F03437345
:1022340001F0EDFA0D4D2A46AB6852F8184F94425E
:1022440000D004B9EC688B4207D05A7BD20604D183
:10225400DA897F2A01D9A2692AB1A34202D0204691
:1022640000F03CFA23466B6138BD00BF74030020C4
:1022740070B590F90D20437B002A014604DA03F07F
:102284007F03437301F0C3FA4B7B1C4C63F07F0361
:1022940022464B7352F8183FE069934207D1C1E9D3
:1022A40000200160E16111E09842F8D01B68002B26
:1022B400F5D091F90E5093F90E60B542F4D0AE42C8
:1022C400F2DD5868C1E9003001605960A569A3686E
:1022D400954200D005B9E5688B4207D05A7BD206F7
:1022E40004D1DA897F2A01D9AA692AB1AB4202D082
:1022F400284600F0F3F92B46636170BD7403002097
:1023040049B9EFF3058030B9054B5A699B689A4285
:1023140001D0FFF729BF81F31188BFF36F8F704796
:1023240074030020034648B9EFF3058232B9064A24
:1023340051699268914201D0FFF716BF83F3118867
:10234400BFF36F8F704700BF74030020EFF3118158
:10235400102383F31288BFF36F8F054B9A68D37BE6
:10236400013BD37381F31188BFF36F8F704700BFB4
:102374007403002070B5EFF31186102383F31288E1
:10238400BFF36F8F144DAB68DA7B0132DA732A46E0
:1023940052F8184F944200D004B9EC685A7BD20624
:1023A40004D1DA897F2A01D9A2692AB1A34202D0D1
:1023B400204600F093F923466B6186F31188BFF33E
:1023C4006F8FEFF31180102383F31288BFF36F8FA5
:1023D400BDE87040FFF7A6BF74030020024B03F171
:1023E4001802C3E9062270477403002070B5EFF3A6
:1023F4001186102383F31288BFF36F8F1B4CA168DF
:10240400E0690B68814214BF1A46002249680B60D8
:102414005960A368E1692AB9154AC3E900210B6030
:10242400E3610CE093F90E0092F90E50A84218D023
:10243400854216DD5168C3E900210B605360A5692C
:102444000B4B9D4200D005B9E568A3689D4202D0BC
:10245400284600F043F965613046BDE87040FFF757
:1024640083BE8A42D8D01268D5E700BF7403002027
:102474008C030020F8B550EA010306460C4603D14C
:10248400FFF7B4FF0020F8BDEFF31187102383F3A7
:102494001288BFF36F8F124D124BA8681860FFF7B4
:1024A400BDFEA868104923463246183000F09CF956
:1024B400AA68537B43F00403537304463846FFF77A
:1024C40053FEAB68D3E90A23B3F1004F08BF002AD7
:1024D400D8D101F03CFA201A20EAE070D3E700BF1B
:1024E40074030020940300208F38000838B5044694
:1024F400EFF31185102383F31288BFF36F8F437BAF
:102504005B070FD5183001F0FAF9637B23F004035D
:1025140020466373FFF740FE29460548BDE838406E
:10252400FFF7EEBE85F31188BFF36F8F38BD00BF90
:10253400A2030020014B9868704700BF7403002079
:102544002DE9F8430446077BEFF31185102383F349
:102554001288BFF36F8F437B190705D585F3118864
:10256400BFF36F8FBDE8F883D90943F008025DD14A
:102574004273A36813B1204601F051F904F1180025
:1025840001F0BDF9A66D04F15808B04511D04FF023
:10259400000976B1304601F042F906F1180001F065
:1025A400AEF9C6F878903046FFF7F6FDA66DB04553
:1025B400EFD1DFF8C080D8F808309C423ED1EFF369
:1025C4000589B9F1000918BF4FF00109D8F818605E
:1025D400294A964200D00EB9D8F80C60B34202D012
:1025E400304600F07BF82046C8F8146000F0F6FC92
:1025F400B9F1000F02D02148FFF7AAFDD8F808303E
:102604009C4231D1EFF3058373BB227BD20718D4EC
:102614002846FFF7A9FDFB07A4D5002383F31188FF
:10262400BFF36F8F0423184602DF9BE703F07F0399
:1026340043F00803437301F0EAF89AE74FF0000906
:10264400C4E785F31188BFF36F8F83F31188BFF359
:102654006F8F0423184602DFEFF31180102383F3F6
:102664001288BFF36F8FD4E785F31188BFF36F8FA0
:10267400D1E700BF740300208C03002088010020F0
:10268400044BC01A044BC0105843044B01221A5483
:10269400704700BF08020020ABAAAAAAA203002028
:1026A400C3897F2B12D80A4B1B6863B1094B90F97D
:1026B4000E201B689A4209DB437BDB0606D1064BDE
:1026C400C31A18BF012303F0010070470023FAE77F
:1026D4003C000020980300208800002070B50E4BB9
:1026E4000E4C1E7C06EB460304EBC3040546204651
:1026F40001F005F90A4B002228469A55FFF7D0FF4E
:1027040048B1084B08491A68013A2046D317BDE876
:10271400704000F069B870BD740300200802002006
:10272400A20300203C0000208526000838B5EFF302
:102734001185102383F31288BFF36F8F104B114A56
:102744009C681068A04206D1FFF7C8FF85F3118882
:10275400BFF36F8F38BD00211B7C11600A4AD35C24
:10276400002BF3D02046FFF79BFF0028EED0637BBD
:10277400DB0602D12046FFF77BFD2046E4E700BFDD
:102784007403002094030020A2030020024B186865
:10279400984208BF0020704740000020034B1B688C
:1027A4000BB9FFF789BA0020704700BF9C030020D3
:1027B40030B570B10B4B5B6898420AD0036843B1E3
:1027C400D3E90421D0E90445121941EB0501C3E919
:1027D4000421D0E9003213605A600023C0E90033B9
:1027E40030BD00BF40000020B3F1FF3F08BFB2F18D
:1027F400FF3F2DE9F84F0446994615461F467AD007
:102804008160EFF31188102383F31288BFF36F8F75
:10281400B9F1000FDFF8E4A020DBFFF7BFFFDAE92E
:102824000027013549F100092D1849EBE073C4E98B
:102834000453AD18064643EB07074FF00109FFF7B1
:10284400A5FFDFF8BCE0DEF804A00346EBB9C4E959
:1028540000EACAF80040CEF8044028E0DAE90012A1
:102864006FF001035B1A4FF0FF3161EB02025B1B57
:1028740062EB0902012B72F10001BCBF01230022AB
:10288400C0E904324FF00009D9E7D3E9041CD4E9C4
:1028940004208A4270EB0C0B24DA891A5A686CEB18
:1028A4000000C3E90410C4E9003214605C60FFF75F
:1028B4006DFF84420ED1134B1B685BB9B9F1000F55
:1028C40002D1FFF76BFF0646304601F001F8002104
:1028D400FFF776F988F31188BFF36F8F28463946DE
:1028E400BDE8F88F521A60EB0C009A45C4E9042045
:1028F400ADD01B68AAE700252F46EFE72002002091
:10290400400000209C0300202DE9F047EFF31185DF
:10291400102383F31288BFF36F8FDFF8A490DFF8DE
:10292400A480C9F80000FFF731FF00260027D9F87A
:102934000030D8E900ECD91750B1D0E90442A342E1
:1029440071EB020A1CDAE41A62EB0102C0E90442E8
:1029540013EB0E034FF000044CEB01012046C8E9D1
:102964000031C9F8004000F0B3FF2146FFF728F911
:1029740085F31188BFF36F8FBDE8F047FFF7D6BE2C
:1029840014EB0E024CEBE473C0E90467C8E90023BE
:10299400FFF70EFF85F31188BFF36F8F83689847A5
:1029A400EFF31185102383F31288BFF36F8FD9F8E7
:1029B40000301B1BC9F80030FFF7E8FEB7E700BF83
:1029C4009C0300202002002010B5EFF31184102393
:1029D40083F31288BFF36F8FFFF7E0FE054A0346C7
:1029E400D2E90001181841EBE37184F31188BFF3B5
:1029F4006F8F10BD20020020014800F0CEBA00BF46
:102A0400184800082DE9F04F8DB04368029383788D
:102A140015469A07804640F10D8100240E78002E59
:102A240000F00A81252E0BD04B1C03930134029B2A
:102A34004146304698470028C0F2F6800399EDE7F6
:102A44004E788B1C252E0393F0D00027B946BB4645
:102A5400BBF11F0F38D8A6F12003102B0AD8DFE8EA
:102A640003F02A0909300909092109090928092D4E
:102A740009091F00A6F13003092B33D92A2E37D1B7
:102A84001BF0400F55F8043B40F08280002BA7BF99
:102A94004BF0200B9946C3F100094BF0280B01E0E1
:102AA4004BF0010B039B13F8016B0393002ECFD162
:102AB40030E04BF0020B4BF0040BF3E74BF0080B48
:102AC400F0E74BF0100BEDE7BBF17F0F19D8A6F13F
:102AD4003003092BD2D81BF0400F03D00A2101FB8D
:102AE4000737DFE70A2101FB09394BF0200BD9E74F
:102AF4002E2E06D11BF0400F40F09E804BF0400B71
:102B0400D0E76C2E31D02BD8682E36D06A2E3CD02C
:102B14004C2E3AD0002F46F02003B8BF2BF04002D1
:102B2400A3F16501BCBF1FFA82FB0027022901D96A
:102B3400612B2FD1073525F00705DFF8ACA2083546
:102B440007271BF0080F66D00AEB070B56465E45B5
:102B540063D1A4EB0A0A06EB0A02A9EB07096FE1A9
:102B6400742E9FD07A2E9DD0D4E71BF0800F18BF0F
:102B74004BF4007B4BF0800B94E71BF4807F18BF71
:102B84004BF4007B4BF4807B8CE74BF4207B89E790
:102B94001F4687E7A6F16301122900F2F080DFE8FF
:102BA40011F013004F00EE00EE00EE00EE004F00B7
:102BB400EE00EE00EE00EE00EE00FE00E900EE0096
:102BC400EE001B00EE00AF0055F8043B8DF8183002
:102BD40001270DF1180AB4E755F804AB834BBAF199
:102BE400000F08BF9A461BF0400F14BF39464FF040
:102BF400FF31504600F0C5FE0746A2E7029B41465E
:102C04002020984700280FDB013EB742F6D34C44FE
:102C1400A41BB14698E74E46F7E716F8010B029B52
:102C240041469847002892DA98F8023043F00403AA
:102C340088F802304FF0FF3420460DB0BDE8F08F25
:102C44001BF0800F34D01BF4007F2CD0073525F007
:102C54000705AA4669685AF8080B2BF010050029E5
:102C6400ADB237DA404261EB410145F480650DF1C4
:102C7400180B0A235A4600F090FEA0EB0B030193B5
:102C84006B0662D5019B25F001019F4289B240F396
:102C9400A180002E00F0998015F0100240F09C8075
:102CA400BB460D4623E0AA465AF8040BC117D4E7E5
:102CB400AA461BF4807F5AF8041B01D10846F5E7A5
:102CC4001BF4007F15BF48B208B241F3C01141F3B1
:102CD400C031C2E750EA0103C9D11BF0400FC6D08E
:102CE400002FC4D12BF0110295B2BB46019740F2DC
:102CF400064115EA01021CBF0BF1010B00222CE076
:102D04002BF010021FFA82FB0A231BF0800C49D01F
:102D14001BF400711DBF073525F00705AA46AA4616
:102D24001ABF5AF8080B69685AF8040B50EA0105EF
:102D340045D12BF016051BF0400FADB242D0002F49
:102D440040D12BF0170295B2019715F0100248D02C
:102D5400019B002E42D103F1010B29075AD4EB0742
:102D640006D5D9456FDD0199A9EB0B035F18CB4656
:102D74005B4649E04BF0100B10237826C5E7782B0F
:102D840004D1C6F1780343F01003BEE7029B414629
:102D9400252098470028FFF647AF023447E608236A
:102DA4000026B2E7AA461BF480715AF8040BBDD082
:102DB4001BF400711ABFC0B2614680B2B6E72BF0B3
:102DC400060295B20DF1180B54E725F01105ADB2CA
:102DD400BB468CE70D46B8E73B460D4603F1020BB4
:102DE400BBE7DDF804B082E7474800084048000824
:102DF400CDE904324146029B202098470028FFF683
:102E040013AF049B059A01339945F1DCA4EB0B0144
:102E1400CC189B460AB3029B4146302098470028B1
:102E2400FFF602AF8EB901342744019B391B994246
:102E340024DC1D465DBB019AA9EB0B0922445546CF
:102E44001446914435E0019F92E7023441463046EE
:102E5400029B98470028E7DAE6E640F206410D4275
:102E6400E2D015F0020F14BF2B20202015F4806F40
:102E740004F10104414618BF2D20E9E7029B4146B5
:102E840030209847002804F10104CEDACCE606ABE2
:102E9400013D4146585D029B98470028CADAC3E6C3
:102EA400029B414620209847002804F10104FFF6C4
:102EB400BBAEA9EB0403002BF2DCBFE570478368CB
:102EC4005B68184700EBC100408840087047F8B5BC
:102ED4000346FFF7F7FFB0FA80F0C0F11F0003EBE1
:102EE400800CCA00DCF81060171D0C4606328DB247
:102EF40056B9012101FA00F0D9680143D960CCF830
:102F04001040DD539D52F8BDF1000431585AD85396
:102F140003EBC0009E52C5805D52F4E7043A2DE9EC
:102F2400F041CC1D114424F0070421F007010E1BCD
:102F3400F708B7FA87F2C2F12405AD004FF0000894
:102F44000735C2F12002ED0804604146A760C4F8C9
:102F54000C80920004F1100000F00BFD6B0043F0B4
:102F64000103638004EBC5027B1B5900A4F80080B5
:102F74005180A21924F83550A2F80280A35304EB1F
:102F8400C70329465A8842F001025A802046BDE808
:102F9400F041FFF79CBF002070470FB407B504A9A8
:102FA40051F8040B0191FDF7D3FA03B05DF804EB7B
:102FB40004B07047704700F0DCBC00F0CCBC0146A4
:102FC4000068FDF747BB08B5FDF774FBBDE8084092
:102FD400FDF794BB00210120FDF73CBB6FF0850099
:102FE400704761B662B680F31188BFF36F8F704784
:102FF40072B6002383F31188BFF36F8FBFF34F8F33
:1030040030BF62B6BFF36F8F7047202809D9B0F183
:10301400004F08D80138B0FA80F0C0F11F0040001A
:103024007047082070473E20704708B5FEF708F83F
:10303400002008BD08B5062201210020FEF726F86D
:10304400002211460620FDF7EFFD01210846072264
:10305400FEF71CF8002211460720FDF7E5FD0822C3
:1030640001210220FEF712F8002211460820FDF784
:10307400DBFD092201210320FEF708F80022114696
:103084000920FDF7D1FD0A2201210420FDF7FEFFEE
:10309400002211460A20FDF7C7FD05210846172224
:1030A400FDF7F4FF002211461720FDF7BDFD28228D
:1030B40006210A20FDF7EAFF002211462820FDF729
:1030C400B3FD002008BD01F01F01012088407047B6
:1030D40000F00302043292000F23934043EA90006D
:1030E40010B5C3B29B0003F1804303F59C33020C7B
:1030F4009C6892FAA2F2B2FA82F224EA1040914059
:103104000143996010BD0B88C3F30B0303F57D6283
:10311400C2F30B02782A82B014D803F1804303F57A
:103124000E3348681A6802431A600B88C3F30B0312
:1031340003F1804303F50E3300201B680193019BC8
:1031440002B070476FF08500FAE70B88C3F30B03F6
:1031540003F57D62C2F30B02782A9FBF03F180431B
:1031640003F50E3349681A689DBF8A4300201A602C
:103174006FF0850070470D2809D843F2EA03C34075
:1031840013F0010F14BF00206FF0850070476FF03B
:103194008500704738B50888C0F30B00FFF7EBFFD4
:1031A400002822DB4868FF281ED082B2C0F34155B4
:1031B40002F1804202F50E3201350123AB4014685E
:1031C400C0F30440013B834024EA030313604968CD
:1031D4008BB203F1804303F50E330A0E1868C1F372
:1031E40004418A4002431A60002038BD0888C0F3B5
:1031F4000B0008B500F57D63C3F30B03782B0AD8E5
:1032040000F1804000F50E304B680268934314BF10
:103214000120022008BDFFF7AEFF002814BF0120E3
:103224000220F7E7704743685B681B690B60002066
:10323400704743685B68586942400A4042405A619B
:103244000020704743685B680020996170474368B9
:103254005B68090499610020704743685B685A6998
:10326400514059610020704710B503699868F8B15E
:10327400884219D1DC6808689860A14200D1D860FE
:10328400002008602AB19A680A60DA68996002B975
:10329400D960002010E0814206D108682060D86817
:1032A4008142EDD1DC60EBE7044600680028F2D1EE
:1032B400002AE8D16FF0150010BDF0B54468012074
:1032C400676888401E46C2F3801327EA00078B40D4
:1032D4003B43636090FAA0F7B7FA87F7D4F808C0C5
:1032E4004FF0030E7F000EFA07F72CEA070C90FA52
:1032F400A0F7B7FA87F7C2F3C1137F00BB4043EAD4
:103304000C03A36090FAA0F3B3FA83F3E7685B00BD
:103314000EFA03F327EA030790FAA0F3B3FA83F350
:1033240002F030055B00C2F341229A403A43202D5B
:10333400E26016D107292BD890FAA0F3226A2BB3A6
:10334400B3FA83F39B000F2101FA03F322EA030289
:1033540090FAA0F3B3FA83F39B0006FA03F3134342
:10336400236290FAA0F3B3FA83F3226890FAA0F0F0
:103374005B000321B0FA80F02D0901FA03F3400049
:1033840022EA030385401D432560F0BD2B46D9E79F
:10339400030A616A93FAA3F282B1B2FA82F292004A
:1033A4000F2793FAA3F3B3FA83F307FA02F29B000D
:1033B40021EA02029E4016436662D2E72A46EEE7FD
:1033C40012F4003CF8B505460C4613461DD096078A
:1033D40014D550075DD55022D90611D542F4007298
:1033E40003F4C061B1F5806F42D0B1F5C06F19D05C
:1033F400B1F5007F18D142F0800215E01022EBE70E
:103404009F06EDD542F48062EAE7D60305D5D006DF
:1034140005D4C2F340129202E2E73022E0E74FF40F
:103424000072DDE742F4C07213F440372E6908D00D
:10343400306920FA04F1C9075FBF0121A1400143AB
:103444003161BCF1000F06D0180314D5696801235B
:103454004968A3408B61686800232146FFF72DFF6C
:1034640027B9336923FA04F2D2070CD40020F8BD3B
:1034740042F48072D8E75903EDD50121A1402846D2
:10348400FFF7E5FEE7E70122A24023EA02033361E6
:10349400ECE76FF08500EAE770B50B4689680546EE
:1034A40011B15E680C6801B970BD8A682A4002D007
:1034B4004B68304698471CB1236821461C46F2E706
:1034C4002346FAE7F8B51F46044640680E461546FB
:1034D400FFF7F3FE112F07D101212B0501FA06F1A5
:1034E40004D563685B6899610020F8BD2046FFF746
:1034F400AEFEF9E730B5036813600579046804EBA0
:10350400C504A34202D36FF0010030BD5C798C4244
:1035140001D00833F0E70020F7E74368C1F34B100C
:103524001B6801F01F01C05801238B40034214BFE4
:103534000123002313700020704710B54368C1F3C2
:103544004B101A6801F01F01845801238B40234358
:103554008350002010BD10B54368C1F34B141868A4
:1035640001F01F01235801228A4023EA0203235059
:10357400002010BD38B504460D46FFF7DEFF29468E
:103584002046FFF7E8FF002038BD10B54229046942
:10359400426801D026290ED1D36892695B6AB3FBD5
:1035A400F2F102FB11334FF4B4414B430020B3FB5F
:1035B400F2F3236010BD6FF08500FBE72629006954
:1035C4000BD103689B091360036843F6095103F0A8
:1035D4003F034B435360002070476FF085007047F2
:1035E40082B003680193019B43680193019B02B07D
:1035F400704708B54368186802680368D907036808
:10360400C2F3C00248BF42F002029B07036848BFEE
:1036140042F004025907036848BF42F02002DB0568
:1036240042BF6FF4807342F008020360D10701D5F2
:10363400FFF7D6FF930701D5FFF7D2FF510701D556
:10364400FFF7CEFF930601D5FFF7CAFF104608BD6A
:1036540037B5436802691C680D4619B96FF0150047
:1036640003B030BD1068D9688368DB6803B301AA6E
:1036740098470028F4DBE368019923F400431920F8
:10368400E360AA00AB0FA1FB0001FCF799FD6422E3
:10369400B0FBF2F102FB11031B013233B3FBF2F373
:1036A40003EB01130F2BD9D99BB2A3600020D7E7FA
:1036B4006FF05700D4E710B543681B6810201A68F0
:1036C4001206FCD5EFF3118280F31288BFF36F8FDB
:1036D4001C68240604D482F31188BFF36F8FEEE7CD
:1036E400596082F31188BFF36F8F10BD08B543682A
:1036F400186803681A0701D5FFF772FF03689B0671
:1037040043BF43680B7000204FF0FF3008BD0369CE
:103714005B681B680B6043681B68DB6803F4C06369
:10372400B3F5806F2FD0A3F5C06CDCF1000343EB3D
:103734000C030B7143681B681B6903F44053B3F516
:10374400805F22D0B3F5405F21D0002B0CBF012352
:1037540003234B7143681B68DA68DB68D20403F403
:10376400C06316D5002B14BF032304238B71436855
:103774001B685B6903F44073A3F5407253425341E1
:10378400CB71002070470223D3E70023E1E7022333
:10379400DFE7002B14BF02230323E7E710B54369D7
:1037A40004463BB90020E268537843F001035370A8
:1037B400404210BD98470028F4D00028B8BF4042CA
:1037C400E368FF28A8BFFF201870ECE740B1C36886
:1037D400587810F001001EBF1878B0FA80F0400944
:1037E4007047EFF31183102383F31288BFF36F8FB5
:1037F400FEE708B5FFF7F5FF08B51024EFF31183D2
:1038040084F31288BFF36F8FFFF7F2FBF6E7D0E97A
:10381400003213605A600023C0E90033704708B5D2
:10382400FFF7F5FF437B23F0020343730023836018
:1038340008BD10B5EFF31184102383F31288BFF38E
:103844006F8FFEF7A9FC84F31188BFF36F8F10BD4F
:1038540010B50146EFF31184102383F31288BFF3EC
:103864006F8F437B13F0280F0AD183680BB1FFF7E6
:10387400D6FF4B7B23F004034B730846FEF78CFC06
:1038840084F31188BFF36F8F10BD01211838FFF73F
:10389400DFBF38B504460D46FEF7ECFDB5F1FF3F3A
:1038A40008BFB4F1FF3F0346204610D013F10900CE
:1038B4004FEAE37141F100010A220023FCF780FC86
:1038C400B0F1004F71F1000128BF6FF0004038BD26
:1038D40008B50246FEF75AFF70B1D0E904319B1ACD
:1038E40061EBE272B3F1004F72F1000104DA002AD5
:1038F400ACBF1846002008BD6FF00040FBE738B5A8
:103904000246EFF31185102383F31288BFF36F8F00
:103914000368CBB1FEF73AFF04461046FEF748FFB2
:1039240000224FF000438442C0E9042306D1FEF78D
:1039340035FFFFF7CDFF0021FEF742F9002085F3A4
:103944001188BFF36F8F38BD6FF01500F7E708B526
:10395400FFF73AF808BD0A44914200F1FF3300D161
:10396400704710B511F8014B03F8014F9142F9D19A
:1039740010BD02440346934200D1704703F8011B73
:10398400F9E710B5024601448A42134603D01C7875
:103994000132002CF8D1181A10BDF0B5C3F1370765
:1039A4000446FFB203F01F031046082BE6B233D0DF
:1039B400102B3ED06508A40844EA817445EAC17519
:1039C4002D194FEA910242EB5102290941EA027191
:1039D4006D1842EB1212290A41EA02616D1842EB9A
:1039E4001222290C41EA02416D1842EB1242AD1831
:1039F40042F10002EC0844EA4274D10804EB840268
:103A0400A6EB4205EDB2092D0CD90134A5F10A0546
:103A140041F10001EDB212E0E40844EA417406F019
:103A24000705C908303554EA010200F8015BBCD12E
:103A3400F0BD240944EA017406F00F050909092DB3
:103A440084BFED19EDB2EDE701480068704700004E
:043A54002802002024
:083A5800A0C7FF7F0100000080
:103A600000000000F83A0008B90500080000000056
:103A700000000000183B000800000000F83B0008B0
:103A800000000000383C000800000000383B00083F
:103A900000000000183C000800000000D83B0008AF
:103AA00000000000B83B000800000000983B000840
:103AB00000000000783B000800000000583B0008B0
:103AC000393000080000000000000000583C0008E9
:103AD00000000000783C0008091500080000000004
:103AE0002D1B0008000000006D1000080000000001
:083AF00000000000983C0008F2
:103AF8005047000800000000104000085A0000204D
:103B0800000000006513000800000000000000002D
:103B1800CD47000874410008E43F00086C0000200D
:103B2800000000000000000000000000000000008D
:103B38003247000800000000000000005800002084
:103B4800000000001512000800000000000000003E
:103B58005D4700086C400008C03F00085C0000207A
:103B6800C80200200916000800000000000000003C
:103B78006B47000880400008C03F00085E00002036
:103B8800DC02002009160008000000000000000008
:103B98007947000894400008C03F000860000020F2
:103BA800F0020020091600080000000000000000D4
:103BB80087470008A8400008C03F000862000020AE
:103BC800040300200916000800000000000000009F
:103BD80095470008BC400008C03F0008640000206A
:103BE800180300200916000800000000000000006B
:103BF800A3470008D0400008C03F00086600002026
:103C08002C03002009160008000000000000000036
:103C1800B1470008E4400008C03F000868000020E1
:103C28004003002009160008000000000000000002
:103C3800BF470008F8400008C03F00086A0000209D
:103C480054030020091600080000000000000000CE
:103C5800E3470008B44100082C4000087000002029
:103C680018000020251A00080000000000000000CD
:103C7800F3470008004200082C40000872000020AA
:103C880028000020251A000800000000000000009D
:103C9800DE47000878410008F43F00086E00002065
:103CA80068030020C516000800000000000000009E
:103CB80000000000D92F000800000000D92F0008DC
:103CC80000000000D92F000800000000D92F0008CC
:103CD80000000000D92F000800000000D92F0008BC
:103CE80030470008A91000082E470008A91000084E
:103CF8002C470008A91000082A470008A910000846
:103D080028470008A910000800000000D92F000863
:103D180000000000D92F000800000000D92F00087B
:103D280000000000D92F000800000000D92F00086B
:103D380000000000D92F000800000000D92F00085B
:103D480000000000D92F000800000000D92F00084B
:103D580000000000D92F000800000000D92F00083B
:103D680000000000D92F000826470008A910000805
:103D780000000000D92F000800000000D92F00081B
:103D880000000000D92F000800000000D92F00080B
:103D980000000000D92F000800000000D92F0008FB
:103DA80000000000D92F000800000000D92F0008EB
:103DB80000000000D92F000800000000D92F0008DB
:103DC80000000000D92F000800000000D92F0008CB
:103DD80000000000D92F000800000000D92F0008BB
:103DE80000000000D92F000800000000D92F0008AB
:103DF80024470008A910000800000000D92F000877
:103E080000000000D92F000800000000D92F00088A
:103E180000000000D92F000800000000D92F00087A
:103E280000000000D92F000800000000D92F00086A
:103E380000000000D92F000800000000D92F00085A
:103E480000000000D92F000800000000D92F00084A
:103E580000000000D92F000800000000D92F00083A
:103E680000000000D92F000800000000D92F00082A
:103E780000000000D92F000800000000D92F00081A
:103E880000000000D92F000800000000D92F00080A
:103E980000000000D92F000800000000D92F0008FA
:103EA80000000000D92F000800000000D92F0008EA
:103EB80000000000D92F000800000000D92F0008DA
:103EC80000000000D92F000800000000D92F0008CA
:103ED80000000000D92F000800000000D92F0008BA
:103EE80000000000D92F000800000000D92F0008AA
:103EF80000000000D92F000800000000D92F00089A
:103F080000000000D92F000800000000D92F000889
:103F180000000000D92F000800000000D92F000879
:103F280000000000D92F000800000000D92F000869
:103F380000000000D92F000800000000D92F000859
:103F480000000000D92F000800000000D92F000849
:103F580000000000D92F000800000000D92F000839
:103F680000000000D92F000800000000D92F000829
:103F780000000000D92F000800000000D92F000819
:103F880000000000D92F000800000000D92F000809
:103F980000000000D92F000800000000D92F0008F9
:103FA80000000000D92F000800000000D92F0008E9
:083FB80000000000D92F0008F1
:103FC000C53300082B320008373200084932000898
:103FD000533200085F320008591500086D3200089E
:043FE00000000000DD
:103FE4001F3500083F3500085B35000879350008A7
:103FF4000000000000000000000000008F350008F1
:0C400400C13500080000000000000000B2
:104010000B3100084F310008000000008D1200082D
:0C402000F1310008000000009931000898
:10402C00F1360008BB360008F7350008F118000817
:04403C00133700082E
:10404000000000200000000000000B06020000003D
:104050005440000800000008154700082000020630
:10406000000000201D4700081C000B11FFFF00008E
:10407000001C02400700000030000000800000002B
:10408000FFFF0000001802400600000030000000A2
:1040900040000000FFFF0000001402400500000087
:1040A0003000000020000000FFFF00000010024070
:1040B000040000003000000010000000FFFF0000BE
:1040C000000C024003000000300000000800000067
:1040D000FFFF000000080240020000003000000066
:1040E00004000000FFFF0000000402400100000087
:1040F0003000000002000000FFFF0000000002404E
:10410000000000003000000001000000383C000802
:10411000183C0008F83B0008D83B0008B83B0008F2
:10412000983B0008783B0008583B0008000000005E
:10413000000000000000000000000000000000007F
:10414000000000000000000000000000000000006F
:10415000000000000000000000000000000000005F
:10416000000000000000000000000000000000004F
:1041700000000000003802409441000840000000A8
:1041800008000000000C004001000000010F0000CA
:10419000D00700009C41000801000000A441000875
:1041A00002000000020000000000000022000000E9
:1041B0000000000000440040183B0008110400000B
:1041C000D8410008010000000000000000000000CD
:1041D00000000000E0410008400000000000020074
:1041E000E841000801000000F04100080200000062
:1041F000470000000002000067000000000000000F
:1042000000100140183B000884040000244200080C
:10421000010000000000000000000000000000009D
:104220002C42000844000000100000003442000846
:10423000010000003C42000802000000C70200002C
:1042400000020000E702000000000000603A0008E1
:10425000603A0008E03A0008E83A0008F83A000836
:10426000F83A0008001000000030516465632064D3
:104270006576696365206973206E6F74207265616D
:1042800064790A005541525420646576696365205B
:104290006E6F7420666F756E640A0051756164728A
:1042A0006174757265206465636F646572207365FF
:1042B0006E736F7220746573740A004661696C6571
:1042C0006420746F2066657463682073616D706C20
:1042D0006520282564290A004661696C656420749C
:1042E0006F20676574206461746120282564290A41
:1042F00000506F736974696F6E203D2025642064DF
:104300006567726565730A0072302F61313A20204B
:10431000307825303878202072312F61323A2020D1
:10432000307825303878202072322F61333A2020BF
:104330003078253038780A0072332F61343A2020E3
:10434000307825303878207231322F69703A202049
:10435000307825303878207231342F6C723A202032
:104360003078253038780A0020787073723A20202F
:104370003078253038780A004661756C74696E674C
:1043800020696E737472756374696F6E2061646402
:104390007265737320287231352F7063293A20308B
:1043A00078253038780A00556E68616E646C6564F3
:1043B000204952516E3A2025640A002A2A2A2A2AC4
:1043C000204D5055204641554C54202A2A2A2A2A4D
:1043D0000A002020537461636B696E6720657272F6
:1043E0006F722028636F6E746578742061726561E6
:1043F000206D69676874206265206E6F7420766135
:104400006C6964290A002020556E737461636B69BE
:104410006E67206572726F720A00202044617461B9
:10442000204163636573732056696F6C6174696FB3
:104430006E0A0020204D4D46415220416464726551
:1044400073733A20307825780A002020496E7374FF
:1044500072756374696F6E20416363657373205670
:10446000696F6C6174696F6E0A002020466C6F6121
:1044700074696E672D706F696E74206C617A792033
:1044800073746174652070726573657276617469A6
:104490006F6E206572726F720A002A2A2A2A2A20F9
:1044A0005553414745204641554C54202A2A2A2A33
:1044B0002A0A0020204469766973696F6E20627948
:1044C000207A65726F0A002020556E616C69676EF4
:1044D0006564206D656D6F727920616363657373C8
:1044E0000A0020204E6F20636F70726F63657373D4
:1044F0006F7220696E737472756374696F6E730A7C
:10450000002020496C6C6567616C206C6F616420D1
:104510006F66204558435F52455455524E20696E90
:10452000746F2050430A002020496C6C6567616CF1
:1045300020757365206F662074686520455053525E
:104540000A002020417474656D707420746F2065BA
:1045500078656375746520756E646566696E6564FB
:1045600020696E737472756374696F6E0A002A2A0B
:104570002A2A2A20425553204641554C54202A2AA3
:104580002A2A2A0A002020537461636B696E67200F
:104590006572726F720A00202050726563697365DC
:1045A000206461746120627573206572726F720A93
:1045B0000020204246415220416464726573733A80
:1045C00020307825780A002020496D707265636973
:1045D0007365206461746120627573206572726F07
:1045E000720A002020496E737472756374696F6E6D
:1045F00020627573206572726F720A00526573656E
:104600007276656420457863657074696F6E2028E2
:104610000053707572696F757320696E746572727C
:1046200075707420284952512000535053454C2036
:10463000696E20746872656164206D6F64652064C2
:104640006F6573206E6F7420696E64696361746551
:10465000205053500A002A2A2A2A2A20484152442C
:10466000204641554C54202A2A2A2A2A0A00202072
:10467000427573206661756C74206F6E2076656379
:10468000746F72207461626C6520726561640A00E7
:1046900020204465627567206576656E740A002087
:1046A000204661756C7420657363616C6174696F19
:1046B0006E20287365652062656C6F77290A00415A
:1046C0005243485F455843455054207769746820E9
:1046D000726561736F6E2025780A0A002A2A2A2AD9
:1046E0002A204465627567206D6F6E69746F722051
:1046F000657863657074696F6E202A2A2A2A2A0AEF
:10470000002A2A2A2A2A20257320256429202A2AD9
:104710002A2A2A0A00464C4153485F30005352412E
:104720004D5F30000A060505040103010201010185
:104730000001696E746572727570742D636F6E74AA
:10474000726F6C6C657240343030313363303000DE
:104750007263634034303032333830300067706910
:104760006F403430303231633030006770696F40F1
:104770003430303231383030006770696F40343057
:10478000303231343030006770696F40343030324D
:1047900031303030006770696F4034303032306310
:1047A0003030006770696F4034303032303830302C
:1047B000006770696F403430303230343030006719
:1047C00070696F4034303032303030300072657391
:1047D00065742D636F6E74726F6C6C6572007164BA
:1047E00065630073657269616C4034303030343415
:1047F00030300073657269616C4034303031313073
:104800003030000000000000000000010203040638
:104810000708096D61696E002A2A2A20426F6F74A9
:10482000696E67205A6570687972204F53206275EF
:10483000696C642076342E332E30202A2A2A0A000E
:10484000286E756C6C29002A666C6F61742A0000F2
:10485000783C00089B2F0008000000002F30000863
:104860000000000000000000000000002000002008
:1048700000C2010000010300000000003000002021
:1048800000C20100000103000024F400C800000081
:104890004000002040000020FFFFFFFFFFFFFFFF60
:0848A000FFFFFFFFFFFFFFFF18
:1048A8000000000000000000000000000000000000
:0C48B800000000000000000000000000F4
:0448C40015E015E006
:0400000508000B2DB7
:00000001FF
