:020000040800F2
:1000000040120020E10C00083D320008CD0C000831
:10001000CD0C0008CD0C0008CD0C0008000000003D
:10002000000000000000000000000000B90D000802
:10003000CD0C000800000000410D0008211C000844
:10004000510F0008510F0008510F0008510F000810
:10005000510F0008510F0008510F0008510F000800
:10006000510F0008510F0008510F0008510F0008F0
:10007000510F0008510F0008510F0008510F0008E0
:10008000510F0008510F0008510F0008510F0008D0
:10009000510F0008510F0008510F0008510F0008C0
:1000A000510F0008510F0008510F0008510F0008B0
:1000B000510F0008510F0008510F0008510F0008A0
:1000C000510F0008510F0008510F0008510F000890
:1000D000510F0008510F0008510F0008510F000880
:1000E000510F0008510F0008510F0008510F000870
:1000F000510F0008510F0008510F0008510F000860
:10010000510F0008510F0008510F0008510F00084F
:10011000510F0008510F0008510F0008510F00083F
:10012000510F0008510F0008510F0008510F00082F
:10013000510F0008510F0008510F0008510F00081F
:10014000510F0008510F0008510F0008510F00080F
:10015000510F0008510F0008510F0008510F0008FF
:10016000510F0008510F0008510F0008510F0008EF
:10017000510F0008510F0008510F0008510F0008DF
:10018000510F0008510F0008510F0008510F0008CF
:10019000510F0008510F0008510F0008510F0008BF
:1001A000510F0008510F0008510F0008510F0008AF
:1001B000510F0008510F0008510F0008510F00089F
:0401C000510F0008D3
:1001C40053B94AB9002908BF00281CBF4FF0FF31BA
:1001D4004FF0FF3000F00CB8ADF1080C6DE904CE1F
:1001E40000F008F8DDF804E0DDE9022304B070470C
:1001F400704700BF2DE9F04786468C460846089EA6
:10020400154674461946002B40F0C2808542B2FA66
:1002140082F245D94AB1C2F1200300FA02FC2EFA57
:1002240003F3954043EA0C0C94404FEA154EA8B2F0
:10023400BCFBFEF8230C0EFB18CC08FB00F943EAC8
:100244000C43994528D9EB1808F1FF3704D2994596
:1002540002D9A8F102072B44A3EB0903A4B2B3FB10
:10026400FEFC0EFB1C330CFB00F044EA0344A042EA
:1002740014D92C190CF1FF3304D2A04202D9ACF1E9
:1002840002032C44241A43EA07401EB1D44000233D
:1002940034607360BDE8F0874746DDE76346F1E705
:1002A40092BB431B01214FEA154EAFB2B3FBFEFCD8
:1002B400200C0EFB1C330CFB07F840EA0343984563
:1002C40062D9EB180CF1FF3004D2984502D9ACF195
:1002D40002002B44A3EB0803A4B2B3FBFEFC0EFB09
:1002E4001C330CFB07F744EA0344A7424ED92C19EC
:1002F4000CF1FF3304D2A74202D9ACF102032C441F
:10030400E41B43EA0040C0E7C2F1200320FA03F1F2
:10031400954090402EFA03F303434FEA154EAFB2D3
:10032400B1FBFEFC0EFB1C10190C0CFB07F841EA98
:100334000041884504FA02F422D969180CF1FF300F
:1003440004D2884502D9ACF102002944A1EB08018A
:100354009BB2B1FBFEFC0EFB1C110CFB07F743EA3E
:1003640001439F420ED9EB180CF1FF3104D29F4296
:1003740002D9ACF102012B44DB1B41EA004192E7B4
:100384006046E3E76146F7E76046A3E76346B7E7FD
:10039400834206D916B9002108467BE7C6E900E086
:1003A400F9E7B3FA83F78FB9834201D3724508D8CA
:1003B400BEEB020460EB030301209C461EB900213E
:1003C40068E73846FAE7C6E9004CF8E7C7F1200CBD
:1003D400BB4022FA0CF41C432EFA0CF120FA0CF365
:1003E400B84001434FEA14490EFA07F5B3FBF9F894
:1003F4001FFA84FE09FB18300B0C08FB0EFA43EAC3
:1004040000439A4502FA07F240D9E31808F1FF3095
:1004140004D29A4502D9A8F102002344A3EB0A03AB
:1004240089B2B3FBF9F809FB183308FB0EFE41EA65
:1004340003418E452CD9611808F1FF3304D28E454F
:1004440002D9A8F10203214443EA0040A0FB029828
:10045400A1EB0E014145CE46434602D306D14D459C
:1004640004D2B9EB020E68EB04030138002EA6D0C7
:10047400B5EB0E0261EB030101FA0CFC22FA07F35F
:100484004CEA0303F940C6E9003198E74046C5E762
:100494004346D9E7014603488368DB690BB101226F
:1004A400184770477C3E000808B50648012102F051
:1004B40005FE20B1044A13680133136008BD034AE2
:1004C400F9E700BF7C3E0008C4020020C0020020FF
:1004D40008B50B48002102F0F1FD024650B1094A6B
:1004E4001368013313600122BDE808400448082161
:1004F40002F0F8BD04490B6801330B60F4E700BF58
:100504007C3E0008CC020020C802002073B53348AA
:1005140003F06FFA28B9324802F072FE002002B0EC
:1005240070BD2E4803F065FA0028F4D02B4803F080
:1005340060FA08B92B48EFE74FF480312A4802F0FB
:100544009EFD014618B1294802F05AFEE6E74FF431
:100554008031274802F093FD014608B12548F3E7AE
:100564004FF4B011244802F08AFD014608B1234833
:10057400EAE71D48224E234D234C02F0C3FD1C48DC
:1005840002F0C0FD2148224B436001238360FFF742
:1005940081FF2048204B436002238360FFF77AFFEA
:1005A4001E4802F02DFE1E4831682A682368006840
:1005B40000901C4802F024FE012000F0B3F80A2247
:1005C40090FBF2F102FB1102174802F019FE002120
:1005D40041F2883003F072FAE5E700BF7C3E000880
:1005E4004E44000865440008584200087C44000852
:1005F400504200089044000848420008A4440008FF
:10060400CC020020C8020020C4020020DC0200202A
:10061400D5040008D0020020AD040008B844000846
:10062400C0020020CF44000804450008014B1B68A9
:10063400184700BF00000020014B1860704700BF3E
:100644000000002030B585B004460D46102200217C
:10065400684603F0A3FA02238DF802302A46044BBD
:1006640001932146684602F0ADFA05B030BD00BFE3
:100674003106000880B505460E461746984602F036
:1006840019F8034603F006FBDFF81890044649F80E
:100694000030424630463946A84754F8090000F075
:1006A40037FB00BF08000000034A536823F002032D
:1006B40053600020704700BF002004E0084B1A6814
:1006C40042F480721A601A6842F400721A601A685E
:1006D40042F480621A60034B034A1A60704700BFF9
:1006E400003C0240340000200024F40008B501F06E
:1006F40063FB014B186008BDE802002008B501F057
:100704005BFB064A064B1268801AD3E900124018B4
:1007140042F10002C3E9000208BD00BFE802002064
:10072400700000202DE9F84F824601F059FBDFF8F4
:100734007480DFF874B00746D8E90004381A4FF023
:1007440060024FF00003894661EB0401FFF738FDB6
:10075400602206460D460023DBE90001FFF730FD69
:10076400B04271EB050C334638BF03462A4638BF06
:100774000A46F41A4FF47A7165EB020CA4FB0104E7
:1007840032462B4601FB0C41FFF71AFDBAF1000F6C
:1007940005D000220023C8E90079CBE90023BDE895
:1007A400F88F00BF7800002070000020014B036028
:1007B400002070476042000808B50348034A00213E
:1007C400121A02F031FD08BD7000002068040020F8
:1007D4000748084A084908B5121A02F027FD0748D5
:1007E400074A0849BDE80840121A02F01FBD00BFBD
:1007F4000000002070000020604A00080000002073
:1008040000000020604A000838B505460C4699B13E
:10081400D1E901230F48096802F0F2FCD4E904236A
:10082400E1680D4802F0ECFCE1690C4802F0E8FCD8
:10083400A1690B4802F0E4FC012D05D1EFF3058119
:100844000848103902F0DCFC21462846BDE838404F
:1008540001F092BB18450008484500087845000897
:1008640088450008B745000830BFFFF7FDBF00BF4B
:100874002DE9F0410B4EDFF8308006EB0807CC1B66
:10088400054632460949204603F07AF9A019424642
:100894000021083C03F082F9C5F8A44007F10800E0
:1008A400BDE8F08100000000040000004842000898
:1008B400054B5A699B689A421FBF044A536843F028
:1008C40080535360704700BF3404002000ED00E003
:1008D4002DE9F843324D804632488946174602F0E6
:1008E4008FFCAB6ADE0622D52F4802F089FC112466
:1008F400AB6A1D0703D52D4802F082FC1224284D53
:10090400AB6A980715D52A4802F07AFC6E6BAB6A7D
:10091400190642D52748314602F072FCB9F1000F9E
:1009240003D0AB6A23F08003AB62132403E01024EA
:10093400DEE76FF015061A4DAB6ADA0703D51E48D9
:1009440002F05EFC1424AB6A9B0603D51B4802F03C
:1009540057FC1524124B9A6AD50602D49A6A90075A
:100964000AD55B68190507D54146304600F0A0FA60
:1009740010B180F309880224094B9A6A920642BF97
:100984005A6A22F400525A629A6A42F0FF029A6248
:1009940000233B702046BDE8F8836FF01506C4E7DA
:1009A40000ED00E0CB450008E245000816460008CB
:1009B4002A460008434600085A4600087A460008BA
:1009C40010B51D4C1D4802F01BFCA36A990130D5DB
:1009D4001B4802F015FC1E20A36ADA0103D519484E
:1009E40002F00EFC1F20144CA36A1B0303D5164807
:1009F40002F006FC2120A36A590303D5134802F030
:100A0400FFFB22200C4CA36A9A0303D5104802F082
:100A1400F7FB2320A36ADB0303D50E4802F0F0FBA7
:100A24002420054A936A6FEA03436FEA13439362EF
:100A340010BD1D20D0E700BF00ED00E0AA4600086D
:100A4400C3460008D7460008F246000811470008CC
:100A5400374700085247000870B5244C064624481E
:100A64000D4602F0CDFBA36AD90435D5214802F026
:100A7400C7FB1720A36A1A0503D51F4802F0C0FB61
:100A840018201A4CA36A9B050FD51C4802F0B8FB2A
:100A9400A16BA36A180407D5194802F0B1FB1EB173
:100AA400A36A23F40043A3621920104CA36A5905D6
:100AB40003D5144802F0A4FB1A20A36ADA050DD565
:100AC400114802F09DFB1B20084A936A43F47F43BC
:100AD400936200232B7070BD1620CBE7A36A9B049E
:100AE400F2D50A4802F08CFB1C20EDE700ED00E093
:100AF4007E4700089547000816460008A7470008E7
:100B0400C1470008D7470008F34700087A460008A1
:100B14002DE9F0415B4B5F688AB00446C7F30806D1
:100B2400002585F31188BFF36F8F02F07F43B3F183
:100B34007F4F06D102F00C03082B13D1524802F068
:100B44005FFB00252C464FF00008F31E8DF807804C
:100B5400092B00F28680DFE803F00A7A7E7684842B
:100B64008484848210074CBF0C460125EBE7474878
:100B7400444E02F045FB8DF80780F36A9A0704D5CA
:100B8400434802F03DFB002330E0F36A002B01DA16
:100B94004048F6E7F36A5B00F5D53F4802F030FBC6
:100BA4007369A26943F480737361BFF34F8FBFF31A
:100BB4006F8F736932F8022C23F480737361BFF36F
:100BC4004F8FBFF36F8F4DF602739A4209D0B36A09
:100BD400DBB253B30DF1070201212046FFF778FE83
:100BE40033E021682D4802F00BFB23689DF80720B1
:100BF400C2B902AE04F1200720686168324603C21C
:100C04000834BC421646F7D1099AB5B3C2F30801B9
:100C140021B96FEA52226FEA4222099202A91846C8
:100C2400FFF7F2FD0AB0BDE8F081B36A13F47F4F19
:100C340005D00DF107010120FFF70EFF05E0B36AAF
:100C4400B3F5803F9FD3FFF7BBFE0346CEE70DF11C
:100C540007020021C1E70DF107010020ECE710486D
:100C64008FE7104B1049114817F4F87FA6F11002D2
:100C740018BF194602F0C4FA85E722F4FF7222F085
:100C84000102CAE700ED00E03A480008664800089F
:100C94007E480008A0480008AF480008CF48000874
:100CA400EC480008214800080C48000811490008D5
:100CB400044B5A6942F010025A615A6922F0080240
:100CC4005A61704700ED00E0EFF30880EFF309810B
:100CD40001B57246FFF71CFF01BD00BF0A4880F34F
:100CE4000888102080F3118808484FF404614018E4
:100CF40080F30988EFF314800221084380F31488F9
:100D0400BFF36F8F00F09CF8401200208004002095
:100D1400084B9B6883420BD1EFF3058343B1064B29
:100D24005A6842F080525A605A6A22F400425A6267
:100D340001F0C6BC3404002000ED00E001B502F06F
:100D44007AFEBDE8014018498A684FF0300010442B
:100D5400EFF3098C80E8F01F102080F31288BFF3B2
:100D64006F8F124F4FF000664A698A603E60D2F876
:100D7400A4000F4C2060D2F8A8000023C2F8A830C9
:100D840080F3118804B5104600F002F9BDE8044070
:100D940002F1300090E8F01F8CF3098801B502F0ED
:100DA40049FEBDE8014070473404002004ED00E032
:100DB400EC0200201EF0040F0CBFEFF30880EFF3E9
:100DC4000980816911F8021C0229FFD001B572461D
:100DD40002F02EFA01BD00BF40B2002807DB044A2E
:100DE4004109012300F01F00834042F8213070477D
:100DF40000E100E040B20028A8BF00F1604001F12A
:100E04000101B8BF064B4FEA0111ACBF00F56140C8
:100E140000F00F00C9B2B4BF195480F80013704732
:100E240014ED00E0044B054A23F07F039360BFF305
:100E34004F8FBFF36F8F70470000000800ED00E094
:100E440008B5FFF7EFFF0B4AD2F8883023F470039C
:100E5400C2F88830EFF3148323F0040383F3148877
:100E6400BFF36F8FFFF7A8FCFFF7B2FC00F062F846
:100E740001F04EF900ED00E042F8203C009B42F8FE
:100E84001C3C0A49019B42F8183C029B42F8143C62
:100E940021F001014FF0807342F8043C42F8081C31
:100EA4000023203A0265C0F8A8307047790600088C
:100EB4000A4A0346906878B113F1160FD0F89400EB
:100EC40005D0A0F140029A4205D8834203D2814260
:100ED40028BF002070470020704700BF3404002062
:100EE40008B50F4B98600F4B04461546D0F8A42064
:100EF4001A600E4602F09EFD204600F049F82C468A
:100F040086F309880020044B9847204600210022DC
:100F14000023024C204700005932000879060008DB
:100F240034040020EC020020014B10221A617047A7
:100F340000ED00E0044800231021C2180133612BA6
:100F440082F80013F9D1704700E100E008B502F01F
:100F540065F9EFF30583074A103B02EBC30152F82E
:100F640033004968884702F05AF9BDE80840FFF7A2
:100F74009FBC00BFDC3E0008024B034A034801212A
:100F840000F078B8008000200000002060420008D3
:100F9400D0F89420054B403A1A60054A4021C3E931
:100FA40001121846012100F06FB800BFF0020020C2
:100FB40000000B15084AC2F898000B6823F01F03C1
:100FC400034343F01003C2F89C308B6843F00103E1
:100FD400C2F8A030704700BF00ED00E02DE9F043F7
:100FE400DFF8608085B00E461F4604464FF00009C6
:100FF400B14523DA6068D8B13FB1411E08421BD124
:101004001F2819D92368194216D12368019302F0C5
:101014003AF9A36803430393D8F89050C5F307251E
:10102400D0B2013DA84207D801A9FFF7C3FF421C73
:1010340009F101090C34DBE76FF01502104605B025
:10104400BDE8F08300ED00E0044B0522C3F89420D2
:10105400BFF34F8FBFF36F8F704700BF00ED00E009
:10106400BFF35F8F024B0022C3F89420704700BF88
:1010740000ED00E010B5034C01232278FFF7AEFF2A
:10108400207010BD6404002008B50B4A00231278B8
:10109400FFF7A4FF10F1160F07D0084A0021D2F879
:1010A4009030C3F30723984200DB08BDC2F89800D0
:1010B400C2F8A0100130F2E76404002000ED00E063
:1010C4002DE9F043534B544CD3F890302568C3F3C7
:1010D40007239D4285B000F29A80FFF7C1FF0020EC
:1010E4000C2685421AD14D4C4D4F25706846FFF7AA
:1010F4005DFBDFF82081DFF82C9106460025AE4227
:1011040013D1237843490020D1F89020C2F3072259
:10111400934276DBFFF798FF002042E0616806FB0C
:101124000011FFF747FF0130DBE7009800EB0511E2
:101134004FEA051CCB683B40B3F5000F48D00AD8F2
:10114400B3F5001F30D0B3F5800F36D0B3F5801F50
:1011540010D00135D3E7B3F1807F42D0B3F1007FE3
:10116400F7D150F80C3088684A6802F08CF840F4E3
:10117400802009E050F80C3088684A6802F083F84F
:1011840040F0885040F43020CDE901230390D8F892
:1011940090302078C3F30723013B98422AD96FF09B
:1011A400150005B0BDE8F08350F80C3088684A6833
:1011B40002F069F840EA0900E6E750F80C30886864
:1011C4004A6802F060F840F0C06040F40030DBE7A9
:1011D40050F80C3088684A6802F055F840F0827084
:1011E400D2E750F80C3088684A6802F04CF840F0B6
:1011F4008870C9E701A9FFF7DDFE23780133237066
:10120400A7E7C1F89830C1F8A00001337CE74FF09C
:10121400FF30C6E700ED00E06C42000864040020E3
:101224000000F0FF0000081108B5024B1B68984746
:10123400002008BDFC020020034B044A1860937888
:1012440043F0020393707047FC0200200400002066
:1012540008B50649064821F00701C1F1005202F51C
:10126400004201F08EFF002008BD00BF871200205D
:1012740000030020044B184400230133994200F872
:10128400012BFADC704700BF440000202DE9F04137
:10129400104F054600264FF001086B78F4B2A342C4
:1012A40001D8BDE8F0812B781C44204600F0C0F83A
:1012B40068B1204600F0CCF857F834303BB107EB66
:1012C400C40204F01F04516808FA04F09847013678
:1012D400E3E700BF0C030020034660B1B0FA80F2DC
:1012E400C2F11F02D2B205498856054A11680B4360
:1012F4001360FFF771BDFF22F5E700BF4400002033
:10130400003C0140024A136823EA0003136070475B
:10131400003C0140032921D8DFE801F0020C101938
:101324000F4B9A6822EA00029A60DA6822EA000205
:10133400DA6070470A4B9A680243F5E7084BDA68AB
:101344000243DA609A6822EA00029A607047044B0A
:101354009A6802439A60DA681043D860704700BF05
:10136400003C014030B5B0B1B0FA80F3C3F11F03C3
:10137400DBB20B4850F833408C4204D100EBC30578
:101384006D68954205D044B940F8331000EBC300B2
:101394004260002030BDFF23EBE76FF00F00F9E758
:1013A4000C03002060B1B0FA80F3C3F11F03DBB279
:1013B400044A002142F8331002EBC3025160704723
:1013C400FF23F5E70C03002000F00302043292002F
:1013D4000F23934043EA9000C3B20233054A52F804
:1013E4002320030C02EA104093FAA3F3B3FA83F325
:1013F400D84070470038014013B50C4C204602F029
:10140400F8FA60B14FF480434422CDE90023A36885
:101414001B683BB169462046984702B010BD6FF087
:101424001200FAE76FF05700F7E700BF3C3D0008F1
:101434001F2809D8012303FA00F0044B5B69984381
:101444000CBF01200020704700207047003C014081
:1014540000F01F021F284FF0010303FA02F39DBF9F
:10146400024A002053616FF015007047003C0140B0
:1014740038B50888314BC0F30B000D281B680D46A6
:1014840014462CD810B96FF0850027E001380C28D9
:10149400F9D801A252F820F0D51400082F1500083D
:1014A400D11400082F1500082B1500080B1500088F
:1014B4001B1500088B1400088B1400088B140008FB
:1014C4008B140008D5140008D51400084FF4FA430F
:1014D40023602968B1F5805F29D2002038BD4428F3
:1014E4000ED82F28CFD900F57D61C1F30B0101225D
:1014F4008A4013490A42EBD14028C4D15B08E7E78C
:10150400A828E5D0BFE700F0BFF84FF4C072C308C5
:1015140053439B08DCE700F0B7F84FF4C072C308EC
:101524005343DB08D4E7074BD2E70023D0E7C1F3EA
:1015340013310131B3FBF1F32360CEE73400002013
:101544001101100000127A0070B54A4C4A4D00F0A7
:10155400BDF8204601F0A4FF00F05AFCAB68474AEE
:10156400C3F30313D35C20FA03F613781C41A64299
:1015740002D2204600F07AFC2B6843F480232B60CF
:101584002B6843F480332B603B4B1A689103FCD5E2
:101594005A6F42F001025A675A6F9207FCD59A6853
:1015A40002F00C02082A17D11A68950707D41A68A2
:1015B40042F001021A60304A13689807FCD52E4B9A
:1015C4009A6822F003029A609A6812F00C0FFBD119
:1015D4009A6822F0F0029A60274D2B6823F08073FA
:1015E4002B602B689901FCD4254AD2F8043823F4E3
:1015F400403343F48033C2F80438D2F8043823F07B
:10160400706343F00063C2F8043800F041F82B68BB
:1016140043F080732B60184B1A689201FCD59A68CA
:1016240022F0F0029A609A6822F0030242F0020269
:101634009A609A6802F00C02082AFAD1A64202D3F0
:10164400204600F013FC0F4B0A4A1A600A4B9A68B2
:1016540022F4E05242F480529A609A6822F4604282
:101664009A60D3F88C2022F08072C3F88C2000207A
:1016740070BD00BF00D8B805003802400E4A00080B
:1016840000300240340000200048704700127A0005
:10169400094B0A495A681140094A0A435A605A6870
:1016A400084922F4403242F480325A605A681140A8
:1016B400054A0A435A607047003802400080BFFF61
:1016C400086040000080BFF008604008064B1A6CB8
:1016D40042F080521A641B6C82B003F08053019371
:1016E400019B02B0704700BF0038024008B50748AC
:1016F40002F07FF938B10648FFF79EFD0448FEF773
:101704009BFF002008BD6FF01200FBE79C3E000821
:10171400191700080A2838B5074D044604D1AB68E8
:101724000D215B6828469847AB6803485B68E1B2C3
:101734009847204638BD00BF9C3E00082DE9F84379
:10174400D0F80480D0F81090D8F8080017460D4659
:101754001E4601F0F6FDB7F5001F044616D12846D3
:10176400D8F80840FFF730FE84420CD1294601F036
:10177400E8FD0446FFF7C6FD2046FFF713FE0021EF
:101784002046FFF7C7FD0020BDE8F883B7F5800FBA
:1017940020D0B6F1806F19D0B6F1C06F18D0B6F171
:1017A400007F1AD1022610494A462046FFF7DAFD87
:1017B400B0B9D8F80810284601F0C8FD20463146D3
:1017C400FFF7A8FD2046FFF787FDDCE70126EAE7DF
:1017D4000326E8E76FF08500D6E76FF01500D3E73E
:1017E4006FF00F00D0E700BF1937000838B5036960
:1017F400044658600A4D284602F0FBF860B1AB6815
:1018040061681B680C3123B12846984700EAE070F0
:1018140038BD6FF05700F9E76FF01200F8E700BF2A
:101824003C3D00082DE9F0471E4F044600EBC1067D
:101834000025B44201D1002014E02068C30600F062
:101844001F0911D4656845F02005C0F3481AC0F398
:101854004420192823D857F82080B8F1000F0DD15F
:101864006FF01200BDE8F087B9F1100F04D0B9F1A0
:10187400110FEAD16568E8E73025E6E7404602F053
:10188400B8F80028ECD04B462A460AF00F0140462F
:1018940001F056FF002804F10804CADAE2E76FF009
:1018A4001500DFE72C430008F8B50C4603694168CE
:1018B4005D682379012B35D09A1E56425641B602F3
:1018C4006279022A9CBF374F37F812C0A27988BFC9
:1018D4004FF4005C042A28D0003B18BF01231B03EB
:1018E400E279012A0A680CBF4FF440770027A54229
:1018F400D1681DD121F4B05131430B43D360136936
:1019040023F4405343EA0C03136143681A68536990
:1019140023F440733B435361296801F0ACFF00EAB0
:10192400E070F8BD4FF4C066CAE74FF48053D7E7C0
:1019340001F4C0618E421FBFD16821F4C0613143FC
:10194400D160426811680A6902F4405294451FBF8D
:101954000A6922F4405242EA0C020A6142681168A0
:10196400CA6802F4805293421FBFCA6822F48052AC
:101974001343CB6043681A68536903F440739F426E
:101984001FBF536923F440733B43536121682B68A1
:10199400994205D001F06FFF0028C2DB23682B6059
:1019A4000020BEE748440008F8B543681D68036991
:1019B4005F680B790C46012B4979A67935D1022948
:1019C4004AD9042E45D04FF4C0624FF480534FF0EF
:1019D400030C8C453DD1002B77D0002A14BF032281
:1019E4000422B24235D1E37963B1012B31D1394BB1
:1019F4009D4207D0A3F54C439D4203D003F55043C9
:101A04009D4226D1EB6823F40053EB602146FFF797
:101A14004BFF00281DDBEB6843F40053EB6094E8B4
:101A2400030087E80300002015E0022B06D10229F9
:101A34001FD9042E0DD04FF48062C6E702290A464E
:101A44001FD9042E02D123B90022BEE713BB0329F8
:101A5400C7D06FF08500F8BD1F4A042E32F811C0BC
:101A6400F7D04FF4C062033B012BF2D94FF48053FB
:101A740019E0194A042E32F811C0EAD04FF48062FA
:101A8400F1E7154A042E32F811C009D1002BE0D138
:101A94001A46EBE7033B012BDBD9D5E70022E2E74B
:101AA400002BFBD11A46BCF5805F08D0BCF5405F23
:101AB40008D0BCF1000F8AD14FF0010C89E74FF038
:101AC400000C86E74FF0020C83E7002A14BF0222C1
:101AD400032286E70010014048440008F7B5066970
:101AE400446805462B48306001F083FF18B96FF055
:101AF400120003B0F0BD3068E16883681B68002BF6
:101B040042D098470028F4DB206A01AA002101F0A2
:101B14002FFE0028EDDB019B002219791868FFF7DE
:101B240081FE0028E5DB6E682B6934685F68E36832
:101B340023F40053E360706801F05BFF0028D6D003
:101B4400D6E901018368DB6803B1984704F10C030B
:101B540053E8003F43F00C0304F10C0141E8003268
:101B6400002AF3D139462846FFF79EFE00280EDBF3
:101B7400337D1BB1636943F008036361E36843F495
:101B84000053E3600020B4E76FF05700B1E76FF053
:101B94001500AEE73C3D000810B54FF0E0230F49B7
:101BA4009C691A6908689B690D4902F4803234B94A
:101BB40093B903464AB90A681044C01A10BD002BF1
:101BC40008BF03460AB9A342F5D90A6802440A6069
:101BD4004FF0E0221269EEE70446F3E730040020F8
:101BE4002C0400200A4B102283F82320094B4FF4C5
:101BF40016521A60084B002018604FF0E02342F29E
:101C04007F525A6198611A6942F007021A6170475B
:101C140000ED00E0300400202C040020684620F091
:101C240007018D4619B501F0F9FAFFF7B5FF124B1C
:101C34001249D3E900420868001942F10002C3E9DD
:101C440000020F4A00230B60D2E900414FF41653FF
:101C5400001BB0FBF3F043431B1941F10001C2E93F
:101C6400003100F031FF01F0DAFAFEF721FEBDE8A1
:101C740019408546704700BF880000202C040020CE
:101C8400800000202DE9F041DFF8DC8099B1421C8E
:101C94000BD14FF0E022136923F0010313614FF0DD
:101CA4007F43C8F80030BDE8F081D8F8006001280F
:101CB40007DC00270BE0431CD8F80060F7D140F2A2
:101CC400D26040F2D3639842A8BF1846471EEFF390
:101CD4001185102383F31288BFF36F8FFFF75CFF26
:101CE400224C4FF0E0239969D4E90023801843F192
:101CF4000003C4E900031E4B00221A601D4B1A683E
:101D0400831A2ED44FF4165C0CFB073303F51553DA
:101D14003F33B3FBFCF7131A0CFB0733B3F5806FA7
:101D2400154A38BF4FF48063934228BF13464FF0DF
:101D3400E022C8F80030013B9069536100239361AD
:101D44008142A1EB0003D4E9001238BF9B195B1850
:101D540042F10002C4E9003285F31188BFF36F8FAA
:101D6400A1E74FF48063E2E73004002088000020FC
:101D74002C0400208000002000C3FF0038B5EFF3DE
:101D84001185102383F31288BFF36F8F084B1C68EF
:101D9400084B1B68E41AFFF7FFFE85F31188BFF3B5
:101DA4006F8F4FF416532044B0FBF3F038BD00BFDF
:101DB400880000208000002038B5EFF3118510233F
:101DC40083F31288BFF36F8F044B1C68FFF7E4FEA4
:101DD40085F31188BFF36F8F204438BD880000203D
:101DE40010B5EFF31184102383F31288BFF36F8FC0
:101DF400FFF7D2FE054AD2E90031C01841F10001D3
:101E040084F31188BFF36F8F10BD00BF88000020DA
:101E140008B513498B6803F00C03042B1CD0082B62
:101E24001CD14A684B68496813F4800314BF0D48F9
:101E34000D48C1F3881118BF002302F03F02A1FB33
:101E44000001FEF7BDF9064B5B68C3F301430133A0
:101E54005B00B0FBF3F008BD0248FCE70248FAE778
:101E64000038024000127A000024F400002876D0E2
:101E74003C4B1A6802F44042B2F5404F20D13A4A32
:101E8400904215D8394A904207D91A6802F4404260
:101E9400B2F5004F5CD102201FE0354A90421A6827
:101EA40002F4404247D9B2F5004F4CD1012014E06E
:101EB4001A6802F44042B2F5004F3FD103200CE00F
:101EC4001A6802F44042B2F5004F22D1274A9042E8
:101ED4003ED8274A90422ED90020224B1B68012865
:101EE40038BF012003F44043B3F5804F1FD0214A8B
:101EF400136823F0070303431360136803F0070315
:101F040098421CBF136803F00703C01A18BF0120CE
:101F140070471B6803F44043B3F5804F0CD1134B57
:101F240098421AD8124B98424FF00000DFD901288A
:101F340038BF0120DBE71B680020D8E71B680320BB
:101F440003F44043D0E71B68012003F44043CBE78C
:101F54001B68022003F44043C6E70220C7E70120C0
:101F6400704700BF00700040804A5D050090D003B8
:101F740080C3C901003C024038B5EFF3118510233A
:101F840083F31288BFF36F8F064B9C6801F044FD06
:101F940085F31188BFF36F8F2046BDE83840FEF704
:101FA400B7BE00BF3404002038B50A4B53F82040B4
:101FB400013053F82050A54200D838BD606830B1D4
:101FC400037FDB0701D401F0FCFC0834F3E723684A
:101FD4009847FAE73044000870B52A4B2A4C2B4D39
:101FE400012286B003201A70FFF7DEFF00F0E4FD43
:101FF4000420FFF7D9FF2646AE4204F1300410D383
:1020040000F064FA204C224EAC4226D300F072FA5F
:10201400FEF77CFA1F4A137B23F00103137306B007
:1020240070BD54F80C3C059354F8103C049354F8D8
:10203400143C039354F8183C029354F81C3C019349
:1020440054F8203C009354E90A2354E90C0100F0AD
:10205400C5F854F8303C5E65CDE7D4E90A23B3F102
:10206400FF3F08BFB2F1FF3F05D052EA03012068E9
:1020740003D100F0FBFA3034C6E73146183000F0E3
:1020840093FCF8E765040020E4410008E4410008FB
:10209400B93A00084001002070B5174E174D184991
:1020A40086B0B02303FB0066164B059301220F2371
:1020B400CDE903320023CDE90133142303FB00559A
:1020C40004464FF4C07000FB04110F4B00954FF40D
:1020D400A072304600F082F8737B0C4AEE6023F065
:1020E400040373734FF4046304FB033313442C7429
:1020F4006B6006B070BD00BF900000203404002067
:10210400C00C00201E4A0008233A00088004002066
:10211400BFB50020FFF748FF284B83F30888284CFD
:10212400284F636943F4007363610025F02384F846
:102134002230E57725766576A57684F82050636AA3
:1021440043F4E0236362FEF7B3FDFEF7EDFE4FF0C8
:10215400FF33A362E362FEF7B3FFFEF70DFF1A48F5
:102164001A4C00F0B1F8FEF7A9FA0120FFF71CFFA2
:102174000220FFF719FF00F0F1F9154B15495C61D6
:10218400154B05930123CDE903534FF480623B467D
:10219400CDE901550095204600F020F8627B064603
:1021A40022F004022046627301F058FC2846FFF72F
:1021B40073FF3A4631462046FEF792FEC00C0020DB
:1021C40000ED00E0DD1F0008F001002040010020C8
:1021D40034040020400E0020234A00082DE9F04F6B
:1021E400073285B022F0070204461E467F3200F112
:1021F4005803C0E9163322F03F02129B23730020D8
:102204000D46119BDDF838A0139FA06004213F2ADE
:10221400C4E906006173A373E07305F14009A2F1F8
:10222400400B05D880F31188BFF36F8F084602DF97
:1022340005EB020841462046FEF71AFB0730109BC7
:1022440020F00700C4E9259BC4F89C0002930F9B6F
:10225400A8EB000BCDE900A35A4633462946204695
:10226400FEF70AFE0F9BA3664FF00008109BC4F80C
:102274005480C4E9186AE366EFF31182102181F3F4
:102284001288BFF36F8F0F4D296A21672C6282F386
:102294001188BFF36F8F8FB11F22394604F1740088
:1022A40001F084FC84F89380AB680BB1D3F8A030C0
:1022B400C4F8A030584605B0BDE8F08F84F87470B7
:1022C400F2E700BF3404002040F2011383810023AD
:1022D400C0E92533C0F8A030014B9860704700BFB7
:1022E400340400200A4A93686FF00A01C3F8AC1062
:1022F4000849C3F8A8004B6843F080534B6000239F
:1023040083F31188BFF36F8F9368D3F8AC007047E1
:102314003404002000ED00E070B590F90D20437BFB
:10232400002A36DBD90634D11B4C63F07F032246E6
:10233400437352F8183FE169934207D1C0E9002181
:102344000860E06111E09942F8D01B68002BF5D0D9
:1023540090F90E5093F90E60B542F4D0AE42F2DD1E
:102364005968C0E9003108605860A569954200D0F9
:1023740005B9E568A3685A7BD20604D1DA897F2AB5
:1023840001D9AA6932B1AB4202D0284600F068FAFA
:10239400656170BD6361FCE73404002038B590F9D1
:1023A4000D20437B002A014604DA03F07F034373C4
:1023B40001F042FB0D4D2A46AB6852F8184F944287
:1023C40000D004B9EC688B4207D05A7BD20604D102
:1023D400DA897F2A01D9A2692AB1A34202D0204610
:1023E40000F03EFA23466B6138BD00BF3404002080
:1023F40070B590F90D20437B002A014604DA03F0FE
:102404007F03437301F018FB4B7B1C4C63F07F0389
:1024140022464B7352F8183FE069934207D1C1E951
:1024240000200160E16111E09842F8D01B68002BA4
:10243400F5D091F90E5093F90E60B542F4D0AE4246
:10244400F2DD5868C1E9003001605960A569A368EC
:10245400954200D005B9E5688B4207D05A7BD20675
:1024640004D1DA897F2A01D9AA692AB1AB4202D000
:10247400284600F0F5F92B46636170BD3404002052
:1024840049B9EFF3058030B9054B5A699B689A4204
:1024940001D0FFF727BF81F31188BFF36F8F704717
:1024A40034040020034648B9EFF3058232B9064AE2
:1024B40051699268914201D0FFF714BF83F31188E8
:1024C400BFF36F8F704700BF34040020EFF3118116
:1024D400102383F31288BFF36F8F054B9A68D37B65
:1024E400013BD37381F31188BFF36F8F704700BF33
:1024F4003404002070B5EFF31186102383F312889F
:10250400BFF36F8F144DAB68DA7B0132DA732A465E
:1025140052F8184F944200D004B9EC685A7BD206A2
:1025240004D1DA897F2A01D9A2692AB1A34202D04F
:10253400204600F095F923466B6186F31188BFF3BA
:102544006F8FEFF31180102383F31288BFF36F8F23
:10255400BDE87040FFF7A6BF34040020024B03F12E
:102564001802C3E9062270473404002070B5EFF363
:102574001186102383F31288BFF36F8F1B4CA1685D
:10258400E0690B68814214BF1A46002249680B6057
:102594005960A368E1692AB9154AC3E900210B60AF
:1025A400E3610CE093F90E0092F90E50A84218D0A2
:1025B400854216DD5168C3E900210B605360A569AB
:1025C4000B4B9D4200D005B9E568A3689D4202D03B
:1025D400284600F045F965613046BDE87040FFF7D4
:1025E40081BE8A42D8D01268D5E700BF34040020E7
:1025F4004C040020F8B550EA010306460C4603D10A
:10260400FFF7B4FF0020F8BDEFF31187102383F325
:102614001288BFF36F8F124D124BA8681860FFF732
:10262400BDFEA868104923463246183000F0BCF9B4
:10263400AA68537B43F00403537304463846FFF7F8
:1026440051FEAB68D3E90A23B3F1004F08BF002A57
:10265400D8D101F091FA201A20EAE070D3E700BF44
:102664003404002058040020B93A000838B5044660
:10267400EFF31185102383F31288BFF36F8F437B2D
:102684005B070FD5183001F04FFA637B23F0040386
:1026940020466373FFF740FE29460548BDE83840ED
:1026A400FFF7EEBE85F31188BFF36F8F38BD00BF0F
:1026B40066040020014B9868704700BF3404002072
:1026C4002DE9F8430446077BEFF31185102383F3C8
:1026D4001288BFF36F8F437B190705D585F31188E3
:1026E400BFF36F8FBDE8F883D90943F0080260D1C6
:1026F4004273A36813B1204601F0A6F904F118004F
:1027040001F012FAA66D04F15808B04511D04FF04B
:10271400000976B1304601F097F906F1180001F08E
:1027240003FAC6F8AC903046FFF7F6FDA66DB04547
:10273400EFD1DFF8C480D8F808309C4241D1EFF3E0
:102744000589B9F1000918BF4FF00109D8F81860DC
:102754002A4A964200D00EB9D8F80C60B34202D08F
:10276400304600F07DF82046C8F8146000F06FFD94
:10277400204600F0CDF8B9F1000F02D02048FFF751
:10278400A3FDD8F808309C4231D1EFF3058373BB25
:10279400227BD20718D42846FFF7A4FDFB07A1D556
:1027A400002383F31188BFF36F8F0423184602DFDD
:1027B40098E703F07F0343F00803437301F03CF907
:1027C40097E74FF00009C1E785F31188BFF36F8FD6
:1027D40083F31188BFF36F8F0423184602DFEFF3EE
:1027E4001180102383F31288BFF36F8FD4E785F32E
:1027F4001188BFF36F8FD1E7340400204C0400200C
:10280400F0010020044BC01A044BC0105843044B81
:1028140001221A54704700BFA0020020ABAAAAAA42
:1028240066040020C3897F2B12D80A4B1B6863B14E
:10283400094B90F90E201B689A4209DB437BDB06A7
:1028440006D1064BC31A18BF012303F001007047D9
:102854000023FAE7380000205C04002090000020E8
:1028640070B50E4B0E4C1E7C06EB460304EBC30402
:102874000546204601F058F90A4B002228469A558D
:10288400FFF7D0FF48B1084B08491A68013A2046BF
:10289400D317BDE8704000F087B870BD3404002041
:1028A400A002002066040020380000200928000847
:1028B40038B5EFF31185102383F31288BFF36F8FBC
:1028C400104B114A9C681068A04206D1FFF7C8FF5C
:1028D40085F31188BFF36F8F38BD00211B7C116015
:1028E4000A4AD35C002BF3D02046FFF79BFF002855
:1028F400EED0637BDB0602D12046FFF779FD20464C
:10290400E4E700BF340400205804002066040020DB
:10291400EFF31181102383F31288BFF36F8F0A4AF8
:10292400136A834207D11B6F136281F31188BFF3CB
:102934006F8F70471346002BF7D01A6F8242F9D17C
:10294400026F1A67F1E700BF34040020024B1868D5
:10295400984208BF002070473C000020034B1B68CE
:102964000BB9FFF70BBA0020704700BF60040020CA
:1029740030B570B10B4B5B6898420AD0036843B121
:10298400D3E90421D0E90445121941EB0501C3E957
:102994000421D0E9003213605A600023C0E90033F7
:1029A40030BD00BF3C000020B3F1FF3F08BFB2F1CF
:1029B400FF3F2DE9F84F0446994615461F467AD045
:1029C4008160EFF31188102383F31288BFF36F8FB4
:1029D400B9F1000FDFF8E4A020DBFFF7BFFFDAE96D
:1029E4000027013549F100092D1849EBE073C4E9CA
:1029F4000453AD18064643EB07074FF00109FFF7F0
:102A0400A5FFDFF8BCE0DEF804A00346EBB9C4E997
:102A140000EACAF80040CEF8044028E0DAE90012DF
:102A24006FF001035B1A4FF0FF3161EB02025B1B95
:102A340062EB0902012B72F10001BCBF01230022E9
:102A4400C0E904324FF00009D9E7D3E9041CD4E902
:102A540004208A4270EB0C0B24DA891A5A686CEB56
:102A64000000C3E90410C4E9003214605C60FFF79D
:102A74006DFF84420ED1134B1B685BB9B9F1000F93
:102A840002D1FFF76BFF0646304601F036F800210D
:102A9400FFF7F8F888F31188BFF36F8F284639469B
:102AA400BDE8F88F521A60EB0C009A45C4E9042083
:102AB400ADD01B68AAE700252F46EFE7B802002037
:102AC4003C000020600400202DE9F047EFF311855D
:102AD400102383F31288BFF36F8FDFF8A490DFF81D
:102AE400A480C9F80000FFF731FF00260027D9F8B9
:102AF4000030D8E900ECD91750B1D0E90442A34220
:102B040071EB020A1CDAE41A62EB0102C0E9044226
:102B140013EB0E034FF000044CEB01012046C8E90F
:102B24000031C9F8004000F0E8FF2146FFF7AAF899
:102B340085F31188BFF36F8FBDE8F047FFF7B8BE88
:102B440014EB0E024CEBE473C0E90467C8E90023FC
:102B5400FFF70EFF85F31188BFF36F8F83689847E3
:102B6400EFF31185102383F31288BFF36F8FD9F825
:102B740000301B1BC9F80030FFF7E8FEB7E700BFC1
:102B840060040020B802002010B5EFF31184102374
:102B940083F31288BFF36F8FFFF7E0FE054A034605
:102BA400D2E90001181841EBE37184F31188BFF3F3
:102BB4006F8F10BDB8020020014800F021BB00BF98
:102BC400284A00082DE9F04F8DB0436802938378BA
:102BD40015469A07804640F10D8100240E78002E98
:102BE40000F00A81252E0BD04B1C03930134029B69
:102BF4004146304698470028C0F2F6800399EDE735
:102C04004E788B1C252E0393F0D00027B946BB4683
:102C1400BBF11F0F38D8A6F12003102B0AD8DFE828
:102C240003F02A0909300909092109090928092D8C
:102C340009091F00A6F13003092B33D92A2E37D1F5
:102C44001BF0400F55F8043B40F08280002BA7BFD7
:102C54004BF0200B9946C3F100094BF0280B01E01F
:102C64004BF0010B039B13F8016B0393002ECFD1A0
:102C740030E04BF0020B4BF0040BF3E74BF0080B86
:102C8400F0E74BF0100BEDE7BBF17F0F19D8A6F17D
:102C94003003092BD2D81BF0400F03D00A2101FBCB
:102CA4000737DFE70A2101FB09394BF0200BD9E78D
:102CB4002E2E06D11BF0400F40F09E804BF0400BAF
:102CC400D0E76C2E31D02BD8682E36D06A2E3CD06B
:102CD4004C2E3AD0002F46F02003B8BF2BF0400210
:102CE400A3F16501BCBF1FFA82FB0027022901D9A9
:102CF400612B2FD1073525F00705DFF8ACA2083585
:102D040007271BF0080F66D00AEB070B56465E45F3
:102D140063D1A4EB0A0A06EB0A02A9EB07096FE1E7
:102D2400742E9FD07A2E9DD0D4E71BF0800F18BF4D
:102D34004BF4007B4BF0800B94E71BF4807F18BFAF
:102D44004BF4007B4BF4807B8CE74BF4207B89E7CE
:102D54001F4687E7A6F16301122900F2F080DFE83D
:102D640011F013004F00EE00EE00EE00EE004F00F5
:102D7400EE00EE00EE00EE00EE00FE00E900EE00D4
:102D8400EE001B00EE00AF0055F8043B8DF8183040
:102D940001270DF1180AB4E755F804AB834BBAF1D7
:102DA400000F08BF9A461BF0400F14BF39464FF07E
:102DB400FF31504600F00AFF0746A2E7029B414656
:102DC4002020984700280FDB013EB742F6D34C443D
:102DD400A41BB14698E74E46F7E716F8010B029B91
:102DE40041469847002892DA98F8023043F00403E9
:102DF40088F802304FF0FF3420460DB0BDE8F08F64
:102E04001BF0800F34D01BF4007F2CD0073525F045
:102E14000705AA4669685AF8080B2BF01005002923
:102E2400ADB237DA404261EB410145F480650DF102
:102E3400180B0A235A4600F0D5FEA0EB0B030193AE
:102E44006B0662D5019B25F001019F4289B240F3D4
:102E5400A180002E00F0998015F0100240F09C80B3
:102E6400BB460D4623E0AA465AF8040BC117D4E723
:102E7400AA461BF4807F5AF8041B01D10846F5E7E3
:102E84001BF4007F15BF48B208B241F3C01141F3EF
:102E9400C031C2E750EA0103C9D11BF0400FC6D0CC
:102EA400002FC4D12BF0110295B2BB46019740F21A
:102EB400064115EA01021CBF0BF1010B00222CE0B4
:102EC4002BF010021FFA82FB0A231BF0800C49D05E
:102ED4001BF400711DBF073525F00705AA46AA4655
:102EE4001ABF5AF8080B69685AF8040B50EA01052E
:102EF40045D12BF016051BF0400FADB242D0002F88
:102F040040D12BF0170295B2019715F0100248D06A
:102F1400019B002E42D103F1010B29075AD4EB0780
:102F240006D5D9456FDD0199A9EB0B035F18CB4694
:102F34005B4649E04BF0100B10237826C5E7782B4D
:102F440004D1C6F1780343F01003BEE7029B414667
:102F5400252098470028FFF647AF023447E60823A8
:102F64000026B2E7AA461BF480715AF8040BBDD0C0
:102F74001BF400711ABFC0B2614680B2B6E72BF0F1
:102F8400060295B20DF1180B54E725F01105ADB208
:102F9400BB468CE70D46B8E73B460D4603F1020BF2
:102FA400BBE7DDF804B082E7574A0008504A00083E
:102FB400CDE904324146029B202098470028FFF6C1
:102FC40013AF049B059A01339945F1DCA4EB0B0183
:102FD400CC189B460AB3029B4146302098470028F0
:102FE400FFF602AF8EB901342744019B391B994285
:102FF40024DC1D465DBB019AA9EB0B09224455460E
:103004001446914435E0019F92E70234414630462C
:10301400029B98470028E7DAE6E640F206410D42B3
:10302400E2D015F0020F14BF2B20202015F4806F7E
:1030340004F10104414618BF2D20E9E7029B4146F3
:1030440030209847002804F10104CEDACCE606AB20
:10305400013D4146585D029B98470028CADAC3E601
:10306400029B414620209847002804F10104FFF602
:10307400BBAEA9EB0403002BF2DCBFE57047F0B450
:1030840003460A461979DB8800681343DC02876823
:10309400066906D513F4402F03D0DA0748BF83F43A
:1030A4004023346801258D4023F48012DB074CBF94
:1030B4002C43AC4334603B68F0BC184737B50C462E
:1030C4000569836801A95B68984748B9019B2A6828
:1030D4005A40012303FA04F10A4214BF184600209F
:1030E40003B030BD012303FA01F103691B681942DF
:1030F40018BF82F0010212B18368DB681847836845
:103104001B69FBE710B4034600681979DB8803F0F8
:1031140040038268946934B1A44643F0C06310BC90
:103124004FF0A072604710BC704700EBC1004088AC
:1031340040087047F8B50346FFF7F7FFB0FA80F090
:10314400C0F11F0003EB800CCA00DCF81060171DEF
:103154000C4606328DB256B9012101FA00F0D96845
:103164000143D960CCF81040DD539D52F8BDF10005
:103174000431585AD85303EBC0009E52C5805D52A7
:10318400F4E7043A2DE9F041CC1D114424F007047E
:1031940021F007010E1BF708B7FA87F2C2F12405E4
:1031A400AD004FF000080735C2F12002ED080460BD
:1031B4004146A760C4F80C80920004F1100000F0AE
:1031C400EDFC6B0043F00103638004EBC5027B1B41
:1031D4005900A4F800805180A21924F83550A2F8AF
:1031E4000280A35304EBC70329465A8842F0010224
:1031F4005A802046BDE8F041FFF79CBF002070478D
:103204000FB407B504A951F8040B0191FDF71AFA9C
:1032140003B05DF804EB04B0704770477047704723
:10322400FDF764BAFDF76ABA00F0B8BC00F0A8BCB8
:1032340001460068FDF7E8BA08B5FDF715FBBDE8DF
:103244000840FDF735BB00210120FDF7DDBA6FF022
:103254008500704761B662B680F31188BFF36F8F43
:10326400704708B5FFF7DCFF72B6002383F31188BB
:10327400BFF36F8FBFF34F8F30BFFFF7D3FF62B63B
:10328400BFF36F8F08BD202809D9B0F1004F08D8CB
:103294000138B0FA80F0C0F11F00400070470820E8
:1032A40070473E20704708B5FDF7BEFF002008BDFB
:1032B40008B5062201210020FDF7DCFF002211469B
:1032C4000620FDF797FD012108460722FDF7D2FFEE
:1032D400002211460720FDF78DFD0822012102205E
:1032E400FDF7C8FF002211460820FDF783FD0922DF
:1032F40001210320FDF7BEFF002211460920FDF73E
:1033040079FD0A2201210420FDF7B4FF00221146B1
:103314000A20FDF76FFD052108461722FDF7AAFFD5
:10332400002211461720FDF765FD282206210A20F8
:10333400FDF7A0FF002211462820FDF75BFD0020C9
:1033440008BD01F01F0101208840704700F003020E
:10335400043292000F23934043EA900010B5C3B2A5
:103364009B0003F1804303F59C33020C9C6892FAA2
:10337400A2F2B2FA82F224EA104091400143996029
:1033840010BD0B88C3F30B0303F57D62C2F30B027C
:10339400782A82B014D803F1804303F50E334868C9
:1033A4001A6802431A600B88C3F30B0303F18043CA
:1033B40003F50E3300201B680193019B02B0704794
:1033C4006FF08500FAE70B88C3F30B0303F57D6206
:1033D400C2F30B02782A9FBF03F1804303F50E3337
:1033E40049681A689DBF8A4300201A606FF08500FF
:1033F40070470D2809D843F2EA03C34013F0010FC4
:1034040014BF00206FF0850070476FF0850070478F
:1034140038B50888C0F30B00FFF7EBFF002822DB68
:103424004868FF281ED082B2C0F3415502F18042A1
:1034340002F50E3201350123AB401468C0F3044099
:10344400013B834024EA0303136049688BB203F110
:10345400804303F50E330A0E1868C1F304418A4011
:1034640002431A60002038BD0888C0F30B0008B579
:1034740000F57D63C3F30B03782B0AD800F1804079
:1034840000F50E304B680268934314BF01200220FC
:1034940008BDFFF7AEFF002814BF01200220F7E7A4
:1034A400704743685B681B690B6000207047436882
:1034B4005B68586942400A4042405A6100207047A4
:1034C40043685B6800209961704743685B6809043E
:1034D40099610020704743685B685A69514059619B
:1034E4000020704710B503699868F8B1884219D173
:1034F400DC6808689860A14200D1D86000200860A8
:103504002AB19A680A60DA68996002B9D960002021
:1035140010E0814206D108682060D8688142EDD16C
:10352400DC60EBE7044600680028F2D1002AE8D109
:103534006FF0150010BDF0B544680120676888403D
:103544001E46C2F3801327EA00078B403B436360A7
:1035540090FAA0F7B7FA87F7D4F808C04FF0030E33
:103564007F000EFA07F72CEA070C90FAA0F7B7FAD7
:1035740087F7C2F3C1137F00BB4043EA0C03A36087
:1035840090FAA0F3B3FA83F3E7685B000EFA03F34F
:1035940027EA030790FAA0F3B3FA83F302F03005A5
:1035A4005B00C2F341229A403A43202DE26016D1D7
:1035B40007292BD890FAA0F3226A2BB3B3FA83F32A
:1035C4009B000F2101FA03F322EA030290FAA0F30D
:1035D400B3FA83F39B0006FA03F31343236290FACE
:1035E400A0F3B3FA83F3226890FAA0F05B000321FE
:1035F400B0FA80F02D0901FA03F3400022EA030334
:1036040085401D432560F0BD2B46D9E7030A616A56
:1036140093FAA3F282B1B2FA82F292000F2793FADC
:10362400A3F3B3FA83F307FA02F29B0021EA02023E
:103634009E4016436662D2E72A46EEE712F4003C47
:10364400F8B505460C4613461DD0960714D5500709
:103654005DD55022D90611D542F4007203F4C0613D
:10366400B1F5806F42D0B1F5C06F19D0B1F5007FCC
:1036740018D142F0800215E01022EBE79F06EDD549
:1036840042F48062EAE7D60305D5D00605D4C2F336
:1036940040129202E2E73022E0E74FF40072DDE7E5
:1036A40042F4C07213F440372E6908D0306920FA0E
:1036B40004F1C9075FBF0121A14001433161BCF19D
:1036C400000F06D0180314D5696801234968A34084
:1036D4008B61686800232146FFF72DFF27B9336902
:1036E40023FA04F2D2070CD40020F8BD42F480720D
:1036F400D8E75903EDD50121A1402846FFF7E5FE9F
:10370400E7E70122A24023EA02033361ECE76FF00A
:103714008500EAE770B50B468968054611B15E6815
:103724000C6801B970BD8A682A4002D04B683046E3
:1037340098471CB1236821461C46F2E72346FAE762
:10374400F8B51F46044640680E461546FFF7F3FEDB
:10375400112F07D101212B0501FA06F104D5636865
:103764005B6899610020F8BD2046FFF7AEFEF9E7DB
:1037740030B5036813600579046804EBC504A342FB
:1037840002D36FF0010030BD5C798C4201D0083364
:10379400F0E70020F7E74368C1F34B101B6801F022
:1037A4001F01C05801238B40034214BF012300238F
:1037B40013700020704710B54368C1F34B101A68AA
:1037C40001F01F01845801238B40234383500020C0
:1037D40010BD10B54368C1F34B14186801F01F0104
:1037E400235801228A4023EA02032350002010BDFB
:1037F40038B504460D46FFF7DEFF29462046FFF79D
:10380400E8FF002038BD82B003680193019B436840
:103814000193019B02B0704708B5436818680268B9
:103824000368D9070368C2F3C00248BF42F002022A
:103834009B07036848BF42F004025907036848BF66
:1038440042F02002DB0542BF6FF4807342F00802AD
:103854000360D10701D5FFF7D6FF930701D5FFF722
:10386400D2FF510701D5FFF7CEFF930601D5FFF72D
:10387400CAFF104608BD37B5436802691C680D4687
:1038840019B96FF0150003B030BD1068D9688368AA
:10389400DB6803B301AA98470028F4DBE3680199C5
:1038A40023F400431920E360AA00AB0FA1FB00013D
:1038B400FCF786FC6422B0FBF2F102FB11031B014E
:1038C4003233B3FBF2F303EB01130F2BD9D99BB2C1
:1038D400A3600020D7E76FF05700D4E710B5436822
:1038E4001B6810201A681206FCD5EFF3118280F3CE
:1038F4001288BFF36F8F1C68240604D482F31188E6
:10390400BFF36F8FEEE7596082F31188BFF36F8FB7
:1039140010BD08B54368186803681A0701D5FFF796
:1039240072FF03689B0643BF43680B7000204FF08F
:10393400FF3008BD03695B681B680B6043681B6844
:10394400DB6803F4C063B3F5806F2FD0A3F5C06CBC
:10395400DCF1000343EB0C030B7143681B681B6928
:1039640003F44053B3F5805F22D0B3F5405F21D018
:10397400002B0CBF012303234B7143681B68DA68D7
:10398400DB68D20403F4C06316D5002B14BF0323F1
:1039940004238B7143681B685B6903F44073A3F5CC
:1039A400407253425341CB71002070470223D3E746
:1039B4000023E1E70223DFE7002B14BF02230323E4
:1039C400E7E710B5436904463BB90020E268537841
:1039D40043F001035370404210BD98470028F4D0CF
:1039E4000028B8BF4042E368FF28A8BFFF20187032
:1039F400ECE740B1C368587810F001001EBF187896
:103A0400B0FA80F040097047EFF31183102383F379
:103A14001288BFF36F8FFEE708B5FFF7F5FF08B50F
:103A24001024EFF3118384F31288BFF36F8FFFF731
:103A340018FCF6E770477047D0E9003213605A600B
:103A44000023C0E90033704708B5FFF7F5FF437B57
:103A540023F0020343730023836008BD10B5EFF322
:103A64001184102383F31288BFF36F8FFEF754FC85
:103A740084F31188BFF36F8F10BD10B50146EFF3C7
:103A84001184102383F31288BFF36F8F437B13F0E9
:103A9400280F0AD183680BB1FFF7D6FF4B7B23F0C5
:103AA40004034B730846FEF737FC84F31188BFF315
:103AB4006F8F10BD01211838FFF7DFBF38B50446FA
:103AC4000D46FEF797FDB5F1FF3F08BFB4F1FF3F88
:103AD4000346204610D013F109004FEAE37141F187
:103AE40000010A220023FCF76BFBB0F1004F71F1D7
:103AF400000128BF6FF0004038BD08B50246FEF74C
:103B040025FF70B1D0E904319B1A61EBE272B3F185
:103B1400004F72F1000104DA002AACBF18460020FD
:103B240008BD6FF00040FBE738B50246EFF311859E
:103B3400102383F31288BFF36F8F0368CBB1FEF7B2
:103B440005FF04461046FEF713FF00224FF0004322
:103B54008442C0E9042306D1FEF700FFFFF7CDFF3E
:103B64000021FEF78FF8002085F31188BFF36F8FD3
:103B740038BD6FF01500F7E708B5FFF705F808BD85
:103B84000A44914200F1FF3300D1704710B511F897
:103B9400014B03F8014F9142F9D110BD0244034691
:103BA400934200D1704703F8011BF9E710B50139BE
:103BB400044632B111F8013F00F8013B013A002BF1
:103BC400F7D10021FFF7EAFF204610BD10B50246E9
:103BD40001448A42134603D01C780132002CF8D1E8
:103BE400181A10BDF0B5C3F137070446FFB203F04D
:103BF4001F031046082BE6B233D0102B3ED06508C5
:103C0400A40844EA817445EAC1752D194FEA91026A
:103C140042EB5102290941EA02716D1842EB12127A
:103C2400290A41EA02616D1842EB1222290C41EA89
:103C340002416D1842EB1242AD1842F10002EC0849
:103C440044EA4274D10804EB8402A6EB4205EDB2C7
:103C5400092D0CD90134A5F10A0541F10001EDB299
:103C640012E0E40844EA417406F00705C908303557
:103C740054EA010200F8015BBCD1F0BD240944EA16
:103C8400017406F00F050909092D84BFED19EDB281
:103C9400EDE700000148006870470000EC020020D6
:083CA40054C5FF7F0100000080
:103CAC00000000003C3D0008AD06000800000000CC
:103CBC00000000005C3D0008000000003C3E0008D5
:103CCC00000000007C3E0008000000007C3D000865
:103CDC00000000005C3E0008000000001C3E0008D4
:103CEC0000000000FC3D000800000000DC3D000866
:103CFC0000000000BC3D0008000000009C3D0008D6
:103D0C00B532000800000000000000009C3E0008D6
:103D1C0000000000BC3E0008F11600080000000086
:103D2C00E91B00080000000055120008000000000C
:103D3C0060490008000000001842000856000020EE
:103D4C00000000004D1500080000000000000000FD
:103D5C00DD49000894430008084200086800002070
:103D6C000000000000000000000000000000000047
:103D7C004249000800000000000000005400002030
:103D8C0000000000FD13000800000000000000000F
:103D9C006D4900088C420008E441000858000020DE
:103DAC008C030020F1170008000000000000000048
:103DBC007B490008A0420008E44100085A0000209A
:103DCC00A0030020F1170008000000000000000014
:103DDC0089490008B4420008E44100085C00002056
:103DEC00B4030020F11700080000000000000000E0
:103DFC0097490008C8420008E44100085E00002012
:103E0C00C8030020F11700080000000000000000AB
:103E1C00A5490008DC420008E441000860000020CD
:103E2C00DC030020F1170008000000000000000077
:103E3C00B3490008F0420008E44100086200002089
:103E4C00F0030020F1170008000000000000000043
:103E5C00C149000804430008E44100086400002044
:103E6C0004040020F117000800000000000000000E
:103E7C00CF49000818430008E44100086600002000
:103E8C0018040020F11700080000000000000000DA
:103E9C00EE49000898430008344200086A000020EC
:103EAC0014000020E11A00080000000000000000CF
:103EBC00FE490008E4430008344200086C0000206E
:103ECC0024000020E11A000800000000000000009F
:103EDC00000000004B320008000000004B320008CC
:103EEC00000000004B320008000000004B320008BC
:103EFC00000000004B320008000000004B320008AC
:103F0C0040490008911200083E490008911200082F
:103F1C003C490008911200083A4900089112000827
:103F2C003849000891120008000000004B320008CC
:103F3C00000000004B320008000000004B3200086B
:103F4C00000000004B320008000000004B3200085B
:103F5C00000000004B320008000000004B3200084B
:103F6C00000000004B320008000000004B3200083B
:103F7C00000000004B320008000000004B3200082B
:103F8C00000000004B32000836490008911200086E
:103F9C00000000004B320008000000004B3200080B
:103FAC00000000004B320008000000004B320008FB
:103FBC00000000004B320008000000004B320008EB
:103FCC00000000004B320008000000004B320008DB
:103FDC00000000004B320008000000004B320008CB
:103FEC00000000004B320008000000004B320008BB
:103FFC00000000004B320008000000004B320008AB
:10400C00000000004B320008000000004B3200089A
:10401C003449000891120008000000004B320008DF
:10402C00000000004B320008000000004B3200087A
:10403C00000000004B320008000000004B3200086A
:10404C00000000004B320008000000004B3200085A
:10405C00000000004B320008000000004B3200084A
:10406C00000000004B320008000000004B3200083A
:10407C00000000004B320008000000004B3200082A
:10408C00000000004B320008000000004B3200081A
:10409C00000000004B320008000000004B3200080A
:1040AC00000000004B320008000000004B320008FA
:1040BC00000000004B320008000000004B320008EA
:1040CC00000000004B320008000000004B320008DA
:1040DC00000000004B320008000000004B320008CA
:1040EC00000000004B320008000000004B320008BA
:1040FC00000000004B320008000000004B320008AA
:10410C00000000004B320008000000004B32000899
:10411C00000000004B320008000000004B32000889
:10412C00000000004B320008000000004B32000879
:10413C00000000004B320008000000004B32000869
:10414C00000000004B320008000000004B32000859
:10415C00000000004B320008000000004B32000849
:10416C00000000004B320008000000004B32000839
:10417C00000000004B320008000000004B32000829
:10418C00000000004B320008000000004B32000819
:10419C00000000004B320008000000004B32000809
:1041AC00000000004B320008000000004B320008F9
:1041BC00000000004B320008000000004B320008E9
:1041CC00000000004B320008000000004B320008D9
:0841DC00000000004B32000856
:1041E40041360008A7340008B3340008C534000879
:1041F400CF340008DB34000841170008E934000814
:0442040000000000B6
:104208009B370008BB370008D7370008F537000888
:1042180087330008CB33000800000000751400083D
:0C4228006D340008000000001534000890
:1042340017390008E13800081D380008AD190008D6
:0442440039390008FC
:104248007C3E0008080000007C3E000801000000D9
:104258007C3E000800000000000000200000000074
:1042680000000B060200000074420008000000086D
:104278002549000820000206000000202D490008FA
:104288001C000B11FFFF0000001C0240070000008B
:104298003000000080000000FFFF0000001802400E
:1042A800060000003000000040000000FFFF000092
:1042B800001402400500000030000000200000004B
:1042C800FFFF000000100240040000003000000062
:1042D80010000000FFFF0000000C02400300000077
:1042E8003000000008000000FFFF00000008024046
:1042F800020000003000000004000000FFFF000082
:10430800000402400100000030000000020000002C
:10431800FFFF000000000240000000003000000025
:10432800010000007C3E00085C3E00083C3E00089E
:104338001C3E0008FC3D0008DC3D0008BC3D0008B0
:104348009C3D000800000000000000000000000084
:104358000000000000000000000000000000000055
:104368000000000000000000000000000000000045
:104378000000000000000000000000000000000035
:1043880000000000000000000000000000380240AB
:10439800004400405C3D000811040000BC430008D4
:1043A8000100000000000000000000000000000004
:1043B800C44300084000000000000200CC4300088D
:1043C80001000000D443000802000000470000007C
:1043D800000200006700000000000000001001401B
:1043E8005C3D000884040000084400080100000047
:1043F8000000000000000000000000001044000859
:1044080044000000100000001844000801000000EB
:104418002044000802000000C7020000000200005B
:10442800E702000000000000AC3C0008AC3C0008BB
:104438002C3D0008343D00083C3D00083C3D000888
:10444800001000000030496E707574204750494FC5
:1044580073206E6F742072656164790A004F7574F9
:10446800707574204750494F206E6F7420726561D3
:1044780064790A0050756C7365412063666720662D
:1044880061696C2025640A0050756C73654220636D
:104498006667206661696C2025640A004F75747030
:1044A800757420636667206661696C2025640A005C
:1044B80050756C736520636F756E746572207374C4
:1044C80061727465640A00413A20726973696E67A3
:1044D8003D25752C2066616C6C696E673D257520DD
:1044E8002020423A20726973696E673D25752C2039
:1044F80066616C6C696E673D25750A0043505520EE
:104508006C6F6164203D2025642E256425250A00F2
:1045180072302F61313A20203078253038782020C9
:1045280072312F61323A20203078253038782020B7
:1045380072322F61333A20203078253038780A00DB
:1045480072332F61343A2020307825303878207241
:1045580031322F69703A202030782530387820722F
:1045680031342F6C723A20203078253038780A00A0
:1045780020787073723A20203078253038780A0015
:104588004661756C74696E6720696E7374727563C1
:1045980074696F6E20616464726573732028723168
:1045A800352F7063293A203078253038780A00553D
:1045B8006E68616E646C6564204952516E3A2025BC
:1045C800640A002A2A2A2A2A204D50552046415595
:1045D8004C54202A2A2A2A2A0A002020537461636C
:1045E8006B696E67206572726F722028636F6E74D4
:1045F8006578742061726561206D696768742062EE
:1046080065206E6F742076616C6964290A00202029
:10461800556E737461636B696E67206572726F7231
:104628000A0020204461746120416363657373202C
:1046380056696F6C6174696F6E0A0020204D4D4693
:10464800415220416464726573733A20307825784A
:104658000A002020496E737472756374696F6E2046
:104668004163636573732056696F6C6174696F6E1B
:104678000A002020466C6F6174696E672D706F693F
:104688006E74206C617A792073746174652070721D
:1046980065736572766174696F6E206572726F7288
:1046A8000A002A2A2A2A2A205553414745204641EA
:1046B800554C54202A2A2A2A2A0A0020204469769E
:1046C8006973696F6E206279207A65726F0A0020BB
:1046D80020556E616C69676E6564206D656D6F72DB
:1046E80079206163636573730A0020204E6F20632D
:1046F8006F70726F636573736F7220696E73747213
:10470800756374696F6E730A002020496C6C656765
:10471800616C206C6F6164206F66204558435F525E
:10472800455455524E20696E746F2050430A00203C
:1047380020496C6C6567616C20757365206F662015
:1047480074686520455053520A00202041747465EE
:104758006D707420746F2065786563757465207555
:104768006E646566696E656420696E7374727563DC
:1047780074696F6E0A002A2A2A2A2A204255532071
:104788004641554C54202A2A2A2A2A0A0020205316
:104798007461636B696E67206572726F720A0020BC
:1047A8002050726563697365206461746120627565
:1047B80073206572726F720A0020204246415220AF
:1047C800416464726573733A20307825780A002052
:1047D80020496D7072656369736520646174612036
:1047E800627573206572726F720A002020496E73B9
:1047F8007472756374696F6E206275732065727266
:104808006F720A0052657365727665642045786335
:10481800657074696F6E20280053707572696F75C2
:104828007320696E746572727570742028495251CC
:104838002000535053454C20696E2074687265619E
:1048480064206D6F646520646F6573206E6F7420DB
:10485800696E646963617465205053500A002A2A9E
:104868002A2A2A2048415244204641554C54202A9D
:104878002A2A2A2A0A002020427573206661756C4C
:1048880074206F6E20766563746F72207461626C39
:104898006520726561640A0020204465627567209E
:1048A8006576656E740A0020204661756C74206513
:1048B8007363616C6174696F6E202873656520622B
:1048C800656C6F77290A00415243485F4558434554
:1048D8005054207769746820726561736F6E202563
:1048E800780A0A002A2A2A2A2A204465627567203B
:1048F8006D6F6E69746F7220657863657074696F27
:104908006E202A2A2A2A2A0A002A2A2A2A2A20251E
:104918007320256429202A2A2A2A2A0A00464C417B
:1049280053485F30005352414D5F30000A06050579
:1049380004010301020101010001696E74657272CC
:104948007570742D636F6E74726F6C6C6572403421
:10495800303031336330300072636340343030328A
:1049680033383030006770696F403430303231632B
:104978003030006770696F40343030323138303051
:10498800006770696F40343030323134303000673E
:1049980070696F40343030323130303000677069C0
:1049A8006F403430303230633030006770696F40A8
:1049B8003430303230383030006770696F4034300E
:1049C800303230343030006770696F403430303204
:1049D800303030300072657365742D636F6E747299
:1049E8006F6C6C65720073657269616C403430304D
:1049F80030343430300073657269616C4034303063
:104A080031313030300000000000000000000102A9
:104A180003040607080969646C65006D61696E0026
:104A28002A2A2A20426F6F74696E67205A65706857
:104A38007972204F53206275696C642076342E3366
:104A48002E30202A2A2A0A00286E756C6C29002A22
:084A5800666C6F61742A000016
:104A60000132000800000000AB3200080000000026
:104A700000000000000000001C00002000C2010037
:104A800000010300000000002C00002000C2010013
:104A9000000103000024F400C80000003C000020D6
:104AA0003C000020FFFFFFFFFFFFFFFFFFFFFFFFB6
:044AB000FFFFFFFF06
:104AB40000000000000000000000000000000000F2
:0C4AC400000000000000000000000000E6
:044AD00015E015E0F8
:0400000508000CE102
:00000001FF
